:100000000C943F030C945C030C945C030C945C0311
:100010000C945C030C945C030C945C030C945C03E4
:100020000C945C030C94B6150C945C030C945C0368
:100030000C9489250C945C030C945C030C945C0375
:100040000C945C030C945C030C949F120C945C0362
:100050000C94AB110C945C030C945E080C945C0340
:100060000C9422170C945C030C944C210C945C03AC
:100070000C945C030C945C030C945C034F175817AE
:100080005D1766177D1767189417A417C117A51970
:10009000671876188718B618D418F11844199719E4
:1000A0006A219D21DB214122592294224323FF23EF
:1000B000FF23FF23FF23FF23FF23FF23FF23FF2330
:1000C000FF23FF23B723B923C023D323D5230A0D4E
:1000D0003D3D3D3D3D3D3D3D3D3D3D3D3D3D3D3D50
:1000E0003D3D3D3D3D3D3D3D3D3D3D3D3D3D3D3D40
:1000F0003D3D3D0A0D004E6F726D616C20284143FD
:10010000432D4D6F6465290048656164696E6748D9
:100110006F6C64000A0D436F6E74726F6C3A20004E
:100120000A0D466C696768742D74696D65202575C4
:10013000206D696E2020546F74616C3A2575206DB6
:10014000696E004F4B0A0D000A0D43616C696272C3
:100150006174696E67207072657373757265207360
:10016000656E736F722E2E000A0D3D3D3D3D3D3D87
:100170003D3D3D3D3D3D3D3D3D3D3D3D3D3D3D3DAF
:100180003D3D3D3D3D3D3D3D3D3D3D3D3D000A0D3F
:100190000A0D2121204D495353494E4720424C2DF1
:1001A0004354524C3A202564202121002564000A42
:1001B0000D466F756E6420424C2D4374726C3A206C
:1001C00000204C6F77207761726E696E67206C65D6
:1001D00076656C3A2025642E256400202564204332
:1001E000656C6C7320000A0D426174743A00416EB4
:1001F000676C654E69636B20202020202020416EB3
:10020000676C65526F6C6C20202020202020416399
:10021000634E69636B202020202020202020416332
:1002200063526F6C6C2020202020202020205961F8
:10023000774779726F2020202020202020204865D9
:10024000696768742056616C7565202020204163C1
:10025000635A2020202020202020202020204761B9
:100260007320202020202020202020202020436FC9
:100270006D706173732056616C7565202020566F18
:100280006C74616765205B302E31565D20205265AD
:10029000636569766572204C6576656C20204779C8
:1002A000726F20436F6D70617373202020204D6F3B
:1002B000746F7220312020202020202020204D6FBC
:1002C000746F7220322020202020202020204D6FAB
:1002D000746F7220332020202020202020204D6F9A
:1002E000746F7220342020202020202020203136DE
:1002F00020202020202020202020202020203137D6
:1003000020202020202020202020202020203138C4
:1003100020202020202020202020202020203139B3
:100320002020202020202020202020202020536555
:1003300072766F2020202020202020202020486F4F
:10034000766572676173202020202020202043756D
:100350007272656E74205B302E31415D20204361E6
:10036000706163697479205B6D41685D2020486924
:1003700067687420536574706F696E74202032351D
:100380002020202020202020202020202020323645
:100390002020202020202020202020202020436FEB
:1003A0006D7061737320536574706F696E74493238
:1003B000432D4572726F7220202020202020424C55
:1003C000204C696D69742020202020202020475077
:1003D000535F4E69636B202020202020202047504F
:1003E000535F526F6C6C20202020202020200A0DAB
:1003F00020444143206F7220493243204552524FDE
:10040000522120436865636B204932432C203356C8
:100410007265662C2044414320616E6420424C2D5D
:100420004374726C002E000A0D3D3D3D3D3D3D3D47
:100430003D3D3D3D3D3D3D3D3D3D3D3D3D3D3D3DEC
:100440003D3D3D3D3D3D3D000A0D4D697865722DB8
:10045000436F6E6669673A20272573272028257524
:10046000204D6F746F727329000A0D47656E6572B7
:100470006174696E672064656661756C74204D698E
:10048000786572205461626C65000A0D5573696E5F
:100490006720506172616D657465722053657420C8
:1004A0002564000A0D47656E65726174696E672088
:1004B00064656661756C7420506172616D65746508
:1004C0007220536574202564000A0D414343206E59
:1004D0006F742063616C69627261746564210D0AD6
:1004E0000000008F001E01AD013B02CA025803E666
:1004F00003740402058F051B06A7063307BE0748D1
:1005000008D2085B09E3096B0AF20A780BFD0B813C
:100510000C040D860D070E870E060F840F00107B4E
:1005200010F5106E11E5115B12CF124213B31323B5
:10053000149214FE146A15D3153B16A116051767FD
:1005400017C81727188318DE1837198E19E31936BC
:100550001A871AD61A231B6E1BB61BFD1B411C8360
:100560001CC31C001D3C1D751DAB1DE01D121E4251
:100570001E6F1E9A1EC31EE91E0D1F2E1F4D1F69E2
:100580001F841F9B1FB01FC31FD31FE11FEC1FF54C
:100590001FFB1FFF1F0020030100005D5C00020124
:1005A00001B45B010302023D5B020003038D5A4E5E
:1005B0006F204E6176694374726C2100486F6D65DF
:1005C0003A2533646D202533642563004447505336
:1005D000004E6F46780020203344002532756D2F81
:1005E00073205361743A256420002534695720250F
:1005F00036696D4168002532692E25316956202003
:100600002533692E253169410025634320202020B0
:10061000200054656D706572617475726573202079
:1006200020200025336920253369202533692025C2
:100630003369002533692025336920253369202556
:100640003369002534696D2563002534692025321E
:10065000693A25303269004552524F523A202532CC
:100660006400537461747573002533642563202519
:100670003033646D002532692E253169560011240E
:100680001FBECFEFD0E1DEBFCDBF11E0A0E0B1E0F3
:10069000E0E3F2EC02C005900D92A43FB107D9F758
:1006A00018E0A4EFB1E001C01D92AA39B107E1F74B
:1006B0000E9426040C9416610C9400001F93CF93A3
:1006C000DF93182F882391F000D00F92ADB7BEB7FB
:1006D00011961C92119786EE91E013969C938E933F
:1006E00012970E945D5E0F900F900F9080914006D0
:1006F000823308F04AC084EF91E00E94A213EC011B
:10070000112329F0CE010E94AC138823D9F3C2E053
:10071000D0E026E530E08091100190911101821720
:10072000930730F02196255D3F4FC730D10599F7EB
:100730008091400690E0FC01CE9FC001CF9F900DBC
:10074000DE9F900D112480930201112309F441C012
:100750008C2F68EC70E00E94C73500D000D00F925B
:10076000EDB7FEB73196ADB7BEB711961C928BEDC3
:1007700091E092838183D483C3830E945D5E0F9056
:100780000F900F900F900F9004C0809302011123DF
:1007900001F120910201EDB7FEB73797EDBF319619
:1007A000ADB7BEB711961C9281EC91E09283818324
:1007B000822F6AE00E94256083831482822F0E9428
:1007C0002560958316820E945D5EEDB7FEB7379671
:1007D000EDBFDF91CF911F91089580911D06A82F45
:1007E000B0E0FD01EE0FFF1FE95BF84F80819181C2
:1007F0008D5E9F4F14F010920301AA0FBB1FA95BDF
:10080000B84F8D919C918A5B9F4FCCF480910301EE
:100810008823A9F481E080930301809160048F5FB5
:1008200080936004853038F088EE93E09093250241
:100830008093240204C066E970E00E94C73580916D
:1008400060048093ED051092EE050895A0E0B0E0FD
:10085000ECE2F4E00C94736014B815B8189B06C071
:10086000199B02C08DE007C08BE005C0199B02C038
:1008700084E101C08AE08093000181E887B93E9A53
:100880008FEF88B98BE184B981E085B98EE38AB9AD
:1008900087E48BB9469A84B7877F84BF80916000D4
:1008A0008861809360001092600084EC99E09093DE
:1008B00025028093240210925C0310925B03109235
:1008C0004C0710924B0710925A0310925903109242
:1008D00058031092570380910001843128F084EC72
:1008E00094E0A0E0B0E004C08BE095E0A0E0B0E0D0
:1008F0008093DB019093DC01A093DD01B093DE01D6
:10090000809100018A3011F0843110F0289801C0E4
:10091000289A0E9414140E94ED130E9426090E9436
:1009200069250E941C1781E00E94F5200E94DE527A
:100930000E943A5E0E94515E809100018C3010F45A
:10094000299A01C0299878940E94E91F8091710228
:1009500082608093710210926E020E94A02F84EF39
:1009600091E00E94A213EC018091710280FD05C00C
:10097000CE010E94AC138823B9F300D00F92ADB71B
:10098000BEB711961C9211978FEA91E013969C9333
:100990008E9312970E945D5E0F900F900F9080EAE9
:1009A0009FE00E94A2135C01B9EEEB2EB6E0FB2E95
:1009B000ADE98A2EA6E09A2E87016401C1E0D0E05D
:1009C000FCEA6F2EF1E07F2E0E94A02F8091710231
:1009D00080FD05C0C5010E94AC138823B9F3F60160
:1009E0008081181664F014C00E94A02F80917102BB
:1009F00080FD05C0C5010E94AC138823B9F3C50171
:100A00000E94AC13882321F4D8018C9187FFECCF8E
:100A1000F801808187FF1AC000D000D00F92EDB797
:100A2000FEB73196ADB7BEB711961C927282618245
:100A3000D483C3830E945D5E8091FA018F5F8093AF
:100A4000FA010F900F900F900F900F902196085F72
:100A50001F4FE4E0F0E0CE0EDF1ECD30D10509F0EF
:100A6000B3CFC1E0D0E00EE811E0E2E0DE2ED70126
:100A70008C9187FD1BC0F40180811816BCF400D056
:100A800000D00F92EDB7FEB73196ADB7BEB7119655
:100A90001C9212830183D483C3830E945D5ED09233
:100AA00027020F900F900F900F900F90F701808109
:100AB00080788083219688E090E0E80EF91EA4E01B
:100AC000B0E08A0E9B1ECD30D10589F600D00F9282
:100AD000EDB7FEB7118288E691E0938382830E948E
:100AE0005D5E0F900F900F9090911B068091FA0120
:100AF000981728F48091460480618093460400D0C2
:100B00000F92ADB7BEB711961C92119788E491E091
:100B100013969C938E9312970E945D5E0F900F9098
:100B20000F9088EE93E00E94A213EC010E94C11B7B
:100B3000CE010E94AC138823D9F300D00F92EDB7F9
:100B4000FEB7118283E491E0938382830E945D5E0D
:100B50000F900F900F9080E00E942533809100014C
:100B60008A3011F0843110F0289801C0289A80ED65
:100B700097E0909325028093240285E58093620498
:100B80008EE090E00E94971D182F8FE090E00E9469
:100B9000971D312F20E0280F311D3093F501209350
:100BA000F4018AE090E00E94971D182F8BE090E0FE
:100BB0000E94971D312F20E0280F311D3093F7013F
:100BC0002093F6012F5F3F4F39F08091F40190910F
:100BD000F5018F5F9F4F41F41092F5011092F401DF
:100BE0001092F7011092F6018DB79EB707978DBF4F
:100BF000EDB7FEB73196ADB7BEB711961C9280E245
:100C000091E0928381838091F4019091F501948326
:100C100083838091F6019091F701968385830E94EA
:100C20005D5E0F900F900F900F90EDB7FEB71182A1
:100C300084E191E0938382830E945D5E8091290626
:100C40000F900F900F9082FF0EC000D00F92ADB7A3
:100C5000BEB711961C92119788E091E013969C9371
:100C60008E93129709C000D00F92EDB7FEB7118294
:100C700086EF90E0938382830E945D5E0F900F90D9
:100C80000F900E941F1C88E893E19093930180933A
:100C9000920181E0809361040E945E03809143068B
:100CA0000E94535E00D00F92ADB7BEB711961C9252
:100CB00011978EEC90E013969C938E9312970E945E
:100CC0005D5E0F900F900F9080ED97E00E94A21351
:100CD0008C018AEF90E00E94A2137C0183E0809354
:100CE000C5051092FB01C0E0D0E078E9C72E7AE399
:100CF000D72E612C68EA762E412C5CE0552E40E11F
:100D0000242E47E2342E30E8A32EB12C25E0822E8B
:100D1000912C809116028111FFCFC7010E94AC1364
:100D2000882339F084E690E00E94A2137C010E949F
:100D3000525E80912102882309F4B8C180911F017D
:100D4000882309F4B3C110922102809160048823A2
:100D500019F00E94ED0302C00E94EC350E94A02F02
:100D6000809100018A3011F0843110F0289801C080
:100D7000289A80915603882349F080915603815028
:100D80008093560380914604877F0CC080916F004A
:100D9000806280936F0010924807109247078091FD
:100DA000460488608093460480919201909193015B
:100DB0000197909393018093920180919201909179
:100DC0009301892B21F080917002882399F1809101
:100DD000920190919301892BC9F40E941E21909257
:100DE0009301809292018091FF05909100060196F7
:100DF000909300068093FF05809146048160809364
:100E000046048091C60582608093C60580910D01DD
:100E100090910E018F5F9F4F09F580915F038823AA
:100E2000E9F03092250220922402B0920E01A092A5
:100E30000D0114C0809100018A3011F0843110F04E
:100E4000289801C0289A8091240290912502892B2C
:100E500029F4809146048E7F80934604809121027C
:100E6000882309F023C180910801882311F00E9492
:100E70002C140E94110A0E942E0DC8010E94AC136E
:100E8000882309F40FC180917002882349F0809172
:100E900046048260809346048091C60582600EC03D
:100EA000809146048D7F80934604809192019091B9
:100EB0009301079728F08091C6058D7F8093C60522
:100EC0008091920190919301079728F080914604B8
:100ED0008E7F8093460480910601882321F0815003
:100EE0008093060121C010926C0410928603109228
:100EF0008503109288031092870310928A03109240
:100F0000890380910D0190910E018F5F9F4F61F4D5
:100F100080915603882341F4D0922502C092240286
:100F200050920E0140920D018091E601893C48F0FB
:100F300081508093E601809146048B7F8093460424
:100F40002CC0809125088823C1F0809146048460DC
:100F50008093460480910D0190910E018F5F9F4F09
:100F600061F480915F03882341F0D0922502C09202
:100F7000240270920E0160920D011092EE03109205
:100F8000ED031092F0031092EF038FEF9FEF909319
:100F90005508809354081092E60120911001309179
:100FA00011018091020190E028173907CCF480915B
:100FB000910380628093910380910D0190910E01C5
:100FC0008F5F9F4FC1F4E0E7F7E1F0932502E093D4
:100FD000240280E093E090930E0180930D010BC0FA
:100FE0008091240290912502892B29F4809191030C
:100FF0008F7D809391030E94955694E090932602F2
:1010000080915F03882319F4CAEAD5E012C0809169
:10101000FC018F5F8093FC01813359F41092FC0135
:101020008091F8019091F90101969093F9018093D4
:10103000F8012196ABE0C237DA0719F00C5E1F4FBA
:1010400031C08091F4019091F50101969093F501E2
:101050008093F4018091F6019091F70101969093AD
:10106000F7018093F6016091F5018EE090E00E9417
:10107000F51D8FE090E06091F4010E94F51D6091F4
:10108000F7018AE090E00E94F51D8BE090E060910E
:10109000F6010E94F51D84E190E00E94A2138C01EC
:1010A000C0E0D0E00E9466570E947E5D80912602DB
:1010B000882309F02ECE0E94D6562BCE1F920F9277
:1010C0000FB60F9211248F939F93EF93FF9380910C
:1010D00004018823E1F480911D0290911E02019683
:1010E00090931E0280931D02FC01E55EFA4FE081A1
:1010F000ED3019F08A3A910539F410921E021092DF
:101100001D0281E080930401E093C60004C01092A8
:101110001E0210921D02FF91EF919F918F910F90EF
:101120000FBE0F901F901895DC0120E030E040E0EA
:1011300050E008C0FA01E55EFA4F8081280F311DAA
:101140004F5F5F4F4A175B07A8F33F70C90136E056
:10115000969587953A95E1F7835CFD01E55EFA4F38
:10116000808311962F73235CFD01E55EFA4F208387
:10117000A45EBA4F8DE08C931092040180911B0500
:101180008093C600089550910802565043E033E022
:1011900048C0E32FF0E0E159FB4F80813F5FE32F30
:1011A000F0E0E159FB4F20812D533F5FE32FF0E04A
:1011B000E159FB4F70813F5FE32FF0E03350E1597D
:1011C000FB4F6081922F92959F708D53880F880FEF
:1011D000892BE42FF0E0E159FB4F8083E42FEF5F90
:1011E000513081F0972F9D53F0E02295207F892F79
:1011F00086958695282BE159FB4F2083E42FEE5FDF
:10120000523011F44E2F10C03C5F5350F0E09295D5
:10121000990F990F907C6D53962BE159FB4F90835A
:101220004D5F552309F0B5CF82E794E090930A0211
:1012300080930902435040930B020895982F8091A8
:10124000C00085FFFCCF9093C6000895E1ECF0E06C
:1012500088E18083A0ECB0E08C9182608C938081E7
:10126000806880838081806480831092C5008AE2D8
:101270008093C40080910E0290910F020E94A213ED
:1012800090933F0480933E048CED90E00E94A21363
:1012900090936E0480936D041092400484E58093D3
:1012A0004104109244048BE0809342041092430462
:1012B00010920A021092090210920B020895A0E007
:1012C000B0E0E5E6F9E00C947E608B857C8593E2E6
:1012D00090931B058F5980931C058A8580931D056B
:1012E000DE011D96772329F4EE24FF2440E050E030
:1012F00007C0ED84FE84DE0151964F8558897150F8
:1013000003E010E030E07EC0F701E30FF11D9081B3
:101310003F5F4150504091F4772309F47FC0FD01B5
:101320003296ED90FC90DF0112960190F081E02D55
:101330007150309709F471C0AF0130E0F701E30F4D
:10134000F11DD0803F5F4150504099F4772311F454
:1013500060E023C0FD013296ED90FC90DF01129613
:101360004081518171504115510511F460E014C064
:1013700030E0F701E30FF11D60813F5F41505040C5
:1013800061F4772351F0FD013296ED90FC90DF017E
:10139000129640815181715030E0892F8695869553
:1013A000835CF801E55EFA4F80832D2D22952F7026
:1013B000892F90E083709070F4E0880F991FFA9560
:1013C000E1F7282B235CF801E45EFA4F20838D2D92
:1013D00090E08F709070880F991F880F991F262FAB
:1013E0002295269526952370282B235CF801E35E31
:1013F000FA4F20836F73635CF801E25EFA4F6083FB
:101400000C5F1F4F4115510509F07ECFC8010E94A6
:1014100094082096E7E00C949A6030E060E0DD24C8
:10142000BCCFA0E1B0E0E7E1FAE00C947F608091EE
:101430000401882309F40EC38091140290911502CF
:101440000E94AC13882361F01092130210921202D2
:1014500010920F0210920E021092110210921002BE
:101460008091120290911302892B41F0809119050D
:1014700090911A050E94AC13882329F48091FF01F2
:10148000882309F466C080910401882309F461C0AF
:101490008091030200E211E0843000F10E94331CCD
:1014A0002DB73EB7275030402DBFEDB7FEB7319670
:1014B00088E4ADB7BEB711968C9381E081838283B7
:1014C0001483038380E590E0968385830E945F09FF
:1014D0002DB73EB7295F3F4F2DBF2FC08DB79EB7A9
:1014E0000B978DBFEDB7FEB7319688E4ADB7BEB7A9
:1014F00011968C9381E0818382E0828383E092E085
:101500009483838381E090E09683858310870783AB
:1015100084E190E0928781870E945F0980910302B5
:101520008F5F8093030281502DB73EB7255F3F4FF9
:101530002DBF843010F0109203028091120290911E
:1015400013020E94A21390931A058093190510921A
:10155000FF018091FE018823A9F180910401882375
:1015600089F10E94331C8DB79EB70F978DBFEDB7E1
:10157000FEB731968CE4ADB7BEB711968C9381E07F
:10158000818383E0828389E692E09483838321E0F0
:1015900030E03683258380E791E090878783328728
:1015A000218780E291E09487838780E590E09687A9
:1015B00085870E945F091092FE012DB73EB7215F1B
:1015C0003F4F2DBF80910102882321F180910401BA
:1015D000882301F18DB79EB707978DBFEDB7FEB792
:1015E000319686E5ADB7BEB711968C9381E08183C5
:1015F000828380E494E0948383838AE090E09683FE
:1016000085830E945F09109201022DB73EB7295FC2
:101610003F4F2DBF8091FD01882331F1809104015E
:10162000882311F18DB79EB707978DBFEDB7FEB731
:10163000319687E4ADB7BEB711968C9380910701C0
:10164000818381E0828382E694E0948383838BE0CC
:1016500090E0968385830E945F091092FD012DB76B
:101660003EB7295F3F4F2DBF80916D0490916E046E
:101670000E94AC13882309F466C08091040188237A
:1016800009F461C0E0903806FF24EE0CFF1CEE0C5C
:10169000FF1C0027F7FC0095102F6091010370914B
:1016A00002038091030390910403A80197010E9413
:1016B000586030935B0420935A0460910903709141
:1016C0000A0380910B0390910C03A80197010E94DB
:1016D000586030935D0420935C0480917C03809378
:1016E0005E0480917D0380935F048DB79EB707975A
:1016F0008DBFEDB7FEB731968BE6ADB7BEB711968D
:101700008C9383E0818381E082838AE594E09483F3
:10171000838388E090E0968385830E945F092DB7DC
:101720003EB7295F3F4F2DBF80916004853018F090
:1017300086E08093600483E690E00E94A213909379
:101740006E0480936D0480910E0290910F02892B9C
:1017500041F080913E0490913F040E94AC13882395
:1017600021F480910002882391F180910401882363
:1017700071F10E94B8278DB79EB707978DBFEDB75F
:10178000FEB7319684E4ADB7BEB711968C9381E075
:101790008183828385EC95E09483838382E490E067
:1017A000968385830E945F091092000280910E0249
:1017B00090910F022DB73EB7295F3F4F2DBF009785
:1017C00031F00E94A21390933F0480933E048091D5
:1017D000100290911102892B09F4B0C080913C0451
:1017E00090913D040E94AC13882309F4A7C0809116
:1017F0000401882309F4A2C0E0903806FF24EE0C0F
:10180000FF1CEE0CFF1C0027F7FC0095102F6091C9
:101810000103709102038091030390910403A801D6
:1018200097010E94586030932F0420932E046091FA
:10183000090370910A0380910B0390910C03A80196
:1018400097010E94586030933104209330046091D6
:101850000D0870910E0880910F08909110082AE0F1
:1018600030E040E050E00E9406602091DB013091C2
:10187000DC014091DD015091DE010E9458603093FF
:101880003304209332048091390390913A03A0915C
:101890003B03B0913C0349E0B595A7959795879593
:1018A0004A95D1F78093340480913D0390913E0393
:1018B000A0913F03B091400339E0B595A795979566
:1018C00087953A95D1F780933504809131039091B3
:1018D0003203A0913303B091340329E0B595A79565
:1018E000979587952A95D1F7809336048DB79EB743
:1018F00007978DBFEDB7FEB7319683E4ADB7BEB79E
:1019000011968C9381E0818382838EE294E09483AC
:1019100083838EE090E0968385830E945F092DB7D4
:101920003EB7295F3F4F2DBF809110029091110269
:101930000E94A21390933D0480933C0460910501A2
:101940006F3FC1F170E0A4E0660F771FAA95E1F741
:1019500062517E4F8E010F5F1F4FC80140E150E082
:101960000E94D2608DB79EB70B978DBFEDB7FEB7C3
:10197000319681E4ADB7BEB711968C9381E0818337
:1019800082E0828385E091E09483838381E090E02C
:10199000968385831087078380E190E09287818713
:1019A0000E945F098FEF809305012DB73EB7255F39
:1019B0003F4F2DBF80910706882321F180910401BC
:1019C000882301F18DB79EB707978DBFEDB7FEB79E
:1019D000319682E4ADB7BEB711968C9381E08183D6
:1019E000828387E096E09483838381E090E096830E
:1019F00085830E945F09109207062DB73EB7295FC5
:101A00003F4F2DBF80910202882321F18091040174
:101A1000882301F18DB79EB707978DBFEDB7FEB74D
:101A2000319680E5ADB7BEB711968C9381E0818386
:101A3000828387E497E09483838384E390E09683B2
:101A400085830E945F09109202022DB73EB7295F7D
:101A50003F4F2DBF6096E6E00C949B60A2E0B0E0A3
:101A6000E4E3FDE00C94836080910502882309F48F
:101A70006EC40E94C30880917004823609F02FC39F
:101A800080917104803709F4BEC0813790F48A36A2
:101A900009F49CC28B3630F48B3401F1863609F0A0
:101AA0001EC366C18D3609F476C08E3609F017C3A1
:101AB00058C0843781F1853738F4813709F4AAC0DA
:101AC000833709F00CC302C1873709F439C289375B
:101AD00009F48DC1853709F002C3EEC1E091090216
:101AE000F0910A02808191819093960180939501F3
:101AF000845E9D4F2091450330914603821B930BDA
:101B000068E671E00E944560845B904090934803D2
:101B100080934703E4C280910802853170F0AAE403
:101B2000B4E08091090290910A029C01F90180E1E0
:101B300001900D928150E1F710C0E0910902F091FF
:101B40000A0280819181A281B38180934A0490939B
:101B50004B04A0934C04B0934D0480EF80930D028E
:101B600055C0809104018823E1F38DB79EB7079794
:101B70008DBFEDB7FEB731968EE4ADB7BEB7119607
:101B80008C9381E08183828380E996E094838383D0
:101B90008DE490E030C0E0910902F0910A0280816A
:101BA000813089F4A0E9B6E08DE401900D92815076
:101BB000E1F70E94EE1E81E08983809146048F7ECA
:101BC0008093460401C01982809104018823E1F3C7
:101BD000ADB7BEB71797ADBFEDB7FEB731968DE481
:101BE00011968C9381E081838283CE010196948348
:101BF000838381E090E0968385830E945F098DB79F
:101C00009EB70796E1C181E0809302028FEF809337
:101C1000060165C2E0910902F0910A02E0818E2F6F
:101C20008A508A3060F48983882311F481E003C0EC
:101C3000863010F085E08983898161E00FC08E2FA6
:101C400084518A3070F48983882311F481E003C0C1
:101C5000863010F085E08983898160E00E94521F00
:101C600012C0E983EF3F19F40E94E81D898389813E
:101C7000882311F481E003C0863010F085E0898369
:101C800089810E94AD1F809104018823E1F3ADB7E3
:101C9000BEB71B97ADBFEDB7FEB7319681E5119684
:101CA0008C9381E0818382E08283CE0101969483CC
:101CB000838381E090E0968385838CE196E0908732
:101CC000878383E790E09287818779C1E091090259
:101CD000F0910A02808181508530E0F5818185355F
:101CE000C9F580915F038823A9F5ACE1B6E0319690
:101CF00083E701900D928150E1F7E0910902F091A4
:101D00000A0280810E94081F60915D0670E080E0F9
:101D100090E024EC39E040E050E00E9406606093DF
:101D20009B0170939C0180939D0190939E01609113
:101D30005E0670E080E090E00E94066060939F0184
:101D40007093A0018093A1019093A2010E94E81DCD
:101D5000898301C01982809104018823E1F3ADB722
:101D6000BEB71797ADBFEDB7FEB7319683E51BC081
:101D7000E0910902F0910A02E0818E2F81508530B6
:101D800018F48E2F0E94AD1F0E94E81D8983809158
:101D900004018823E1F3ADB7BEB71797ADBFEDB728
:101DA000FEB7319686E411968C9381E0818382831D
:101DB000CE0101969483838381E090E096838583AE
:101DC0000E945F098DB79EB707968DBF80915F0314
:101DD000882329F489816EE670E00E94C73580E08F
:101DE0000E945E03809143060E94535E78C1E09199
:101DF0000902F0910A028081992787FD90959093BE
:101E00006207809361078181992787FD9095909360
:101E10006407809363078281992787FD909590934B
:101E20006607809365078381992787FD9095909336
:101E30006807809367078481992787FD9095909321
:101E40006A07809369078581992787FD909590930C
:101E50006C0780936B078681992787FD90959093F7
:101E60006E0780936D078781992787FD90959093E2
:101E7000700780936F078085992787FD90959093D1
:101E80007207809371078185992787FD90959093BC
:101E90007407809373078285992787FD90959093A7
:101EA0007607809375078385992787FD9095909392
:101EB00078078093770713C1E0910902F0910A0235
:101EC00080810E9423248A83882319F481E08983F6
:101ED00001C01982809104018823E1F3ADB7BEB738
:101EE0005397ADBFEDB7FEB7319685E511968C934C
:101EF00081E0818384E08283CE0101969483838391
:101F000021E030E036832583CE01029690878783D7
:101F1000328721878091090290910A0294878387F2
:101F2000368725878EED96E0908B878788E090E056
:101F3000928B818B0E945F098DB79EB7439644C0F8
:101F400080910B02893008F4CAC0E0910902F09137
:101F50000A02AEEDB6E0319688E001900D92815014
:101F6000E1F7E0910902F0910A0280810E94C42405
:101F70008A83882319F481E0898301C019828091C2
:101F800004018823E1F3ADB7BEB71B97ADBFEDB732
:101F9000FEB7319687E511968C9381E0818382E0CC
:101FA0008283CE0101969483838321E030E03683DF
:101FB0002583CE01029690878783328721870E94EE
:101FC0005F098DB79EB70B968DBF89C00E94575E83
:101FD0008983823019F0843009F081C0F8948091AF
:101FE000C1008F738093C1008091C9008F7380936B
:101FF000C9008091C100877E8093C1008091C90093
:10200000877E8093C90002C08091CE008091C80075
:1020100087FDFACF02C08091C6008091C00087FD85
:10202000FACFE0910902F0910A028081882351F5EC
:1020300081E0809316021092CD0080E48093CC0062
:102040008091CD008093C5008091CC008093C40026
:102050008091CA008F7D8093CA008091CA008F7ED4
:102060008093CA008091C9008B7F8093C9008091C2
:10207000CA0084608093CA008091CA008260809305
:10208000CA0003C082E0809316028091CA00877F55
:102090008093CA008091C200877F8093C2008091A4
:1020A000C9008E7F8093C9008091C10088618093B0
:1020B000C1008091C90088618093C9008091C100EE
:1020C00080688093C1008091C90080688093C900B6
:1020D00010926E0010926F001092700078948091B0
:1020E0007104843609F4D0C0853680F4813609F451
:1020F0007CC0823620F48B3409F021C159C082366D
:1021000009F480C0833609F01AC191C08C3609F4F5
:1021100001C18D3638F4873609F40EC1883609F0CE
:102120000EC1C8C0843721F0863709F008C100C14C
:1021300080910802803170F0AAE4B4E08091090235
:1021400090910A029C01F90180E101900D92815069
:10215000E1F710C0E0910902F0910A0280819181BB
:10216000A281B38180934A0490934B04A0934C04C2
:10217000B0934D04809104018823E1F300D00F92C5
:10218000EDB7FEB7319684E5ADB7BEB711968C9327
:1021900080910701818312820E945F098AEF8093F8
:1021A0000D028FEF809306010F900F900F9063C088
:1021B000E0910902F0910A02808191819093960149
:1021C00080939501845E9D4F209145033091460395
:1021D000821B930B68E671E00E944560845B90402F
:1021E0009093480380934703AAC0E0910902F091BD
:1021F0000A028081809305018032A8F08FE18093EC
:10220000050111C0A2E6B4E08091090290910A0292
:102210009C01F9018BE001900D928150E1F78091D2
:102220006B04809307068FEF8093060188C080912E
:10223000100290911102892B89F4E0910902F0912A
:102240000A02E081EE2351F08AE0E89FC0011124E8
:102250000E94A21390933D0480933C04E0910902F4
:10226000F0910A0280812AE0829FC001112490939C
:1022700011028093100280EA9FE00E94A2139093C3
:102280001502809314025BC08FEF80930601E091EA
:102290000902F0910A0280812AE0829FC001112484
:1022A00090930F0280930E02892B29F381E0809393
:1022B0000002E1CF8FEF80930601E0910902F091D7
:1022C0000A02908197FD08C082E080930302109279
:1022D0001302109212021AC0909580916A02892B03
:1022E00080936A0281812AE0829FC0011124909329
:1022F00013028093120284E08093030280EA9FE03D
:102300000E94A213909315028093140281E080939F
:10231000FF0115C08FEF80930601E0910902F09153
:102320000A0280818093690281E08093FE0107C0E8
:1023300081E08093010203C081E08093FD0110924F
:10234000050210920A021092090210920B022296C4
:10235000E2E00C949F601F920F920FB60F9211242F
:102360002F933F934F935F936F937F938F939F939D
:10237000AF93BF93CF93DF93EF93FF9380911602B8
:10238000813029F48091C6008093CE00C5C0809131
:102390001602823029F48091C60080936F04BCC07D
:1023A0008091C60080930402409118024A3A10F0CE
:1023B00010921702809104028D3009F061C0809163
:1023C0001702823009F05CC010921702A42FB0E00F
:1023D000FD01E359FB4F3081ED01C259DB4F2881EC
:1023E00080911B0290911C02831B9109821B910911
:1023F0009F7090931C0280931B029C0176E036959F
:1024000027957A95E1F7235C20931A02982F9F7302
:10241000935C909319028081281729F4888198177A
:1024200011F491E006C0809107028F5F809307024C
:1024300090E080910502882309F06EC0992309F489
:102440006BC081E0809305024F5F40930802A15961
:10245000BB4F8DE08C9380917104823509F05CC094
:102460000E941F1C2CE088E190E00FB6F894A8951C
:10247000809360000FBE20936000109227024CC032
:10248000809117028130F9F0813020F0823009F01C
:1024900041C024C080910402833239F48091050246
:1024A000882319F481E080931702809104028093BD
:1024B0006F0481E0809318028091040280931B02D4
:1024C00010921C0229C082E080931702E42FF0E0F2
:1024D00080910402E159FB4F808309C0E42FF0E0B2
:1024E00080910402E159FB4F80834A3A20F44F5F08
:1024F0004093180202C010921702209104028091AA
:102500001B0290911C02820F911D90931C028093DC
:102510001B0202C010921702FF91EF91DF91CF9141
:10252000BF91AF919F918F917F916F915F914F91EB
:102530003F912F910F900FBE0F901F9018951F92F3
:102540000F920FB60F9211242F933F935F936F93C7
:102550007F938F939F93AF93BF938091260288239D
:1025600029F08091260281508093260280911D04DB
:10257000882319F0815080931D048091330281508B
:10258000809333028F5F09F056C089E08093330255
:1025900080911F02909120020196909320028093D7
:1025A0001F0280910F018F5F817080930F0188233C
:1025B00019F481E080932102349903C081E0809373
:1025C00032028091240290912502892B11F1809191
:1025D0002402909125020B9750F080912402909153
:1025E00025020A97909325028093240204C010923A
:1025F00025021092240280912402909125022091BC
:102600000D0130910E0182239323892B09F086C09E
:1026100006C08FEF9FEF90930E0180930D01809184
:1026200000018A3039F404C05A9A05C0479A03C0A1
:102630005A9801C0479880913202882309F474C0E7
:102640008091E601882309F06FC08091290683FFFD
:102650006BC0349B14C0809122029091230201969A
:102660009093230280932202809122029091230270
:10267000895E934008F458C01092320255C0809190
:10268000220290912302892B09F443C080912202F7
:10269000909123028A569140E0F5209122023091D8
:1026A0002302809122029091230269E270E00E944D
:1026B0003160260F371F309323022093220280912E
:1026C0002202909123020B9750F080912202909168
:1026D00023020A97909396018093950104C010926B
:1026E0009601109295018091950190919601845EDA
:1026F0009D4F2091450330914603821B930B68E662
:1027000071E00E944560845B904090934803809301
:102710004703109223021092220206C0809100010A
:102720008A3009F083CF80CFBF91AF919F918F9175
:102730007F916F915F913F912F910F900FBE0F90FE
:102740001F90189520911F02309120022F5F3F4F5C
:10275000280F391FC901089520911F0230912002CE
:10276000821B930B80709078892F86950895209115
:102770001F02309120022F5F3F4F280F391F809199
:102780001F0290912002A901481B590BCA018070B9
:102790009078892F869599F3089520911F023091A2
:1027A00020022F5F3F4F280F391F4FEC08C0809148
:1027B0001F01882321F010921F0140937A0080911D
:1027C0001F0290912002B901681B790BCB01807028
:1027D0009078892F869559F308959FB7F8945F985C
:1027E0003E9A469AA0EBB0E08C918F708C938C91BE
:1027F00083608C93E1EBF0E080818B738083808138
:102800008B6080831092B2008FEF8093B3008C9125
:1028100080688C93E0E7F0E080818A7F808380810C
:10282000826080839FBF089580911F029091200253
:102830000B96909335028093340282E085BD83EA43
:1028400084BD17BC84EB88BD86E086BDEEE6F0E073
:1028500080818160808308952F923F924F925F9292
:102860006F927F928F929F92AF92BF92CF92DF92A0
:10287000EF92FF920F931F93E0915306F0E0E6541E
:10288000FE4F9681808120910801A82EBB24A7FCD1
:10289000B094CB2CDB2CE0900903F0900A0300915C
:1028A0000B0310910C03692E772467FC7094872C1E
:1028B000972C209001033090020340900303509026
:1028C0000403213009F0B3C0C601B501A801970186
:1028D0000E94066020E830E040E050E00E9458602E
:1028E00079018A0110950095F094E094E11CF11CA7
:1028F000011D111D2091080430910904C901A3E0B4
:10290000880F991FAA95E1F7821B930BAA2797FDC1
:10291000A095BA2FE81AF90A0A0B1B0BC401B301E0
:10292000A20191010E94066020E830E040E050E002
:102930000E945860E20EF31E041F151F20914A06E4
:1029400030E040E050E0C801B7010E94066020E09E
:1029500032E040E050E00E94586079012091090186
:1029600030910A014091090150910A018091B3010F
:1029700090E0F6E0880F991FFA95E1F76091520612
:10298000841B950B70E00E944560260F371F309323
:102990000A01209309018091090190910A0160E1E7
:1029A00070E00E94456070932B0260932A02809130
:1029B000810680FF07C080912A0290912B028E0D24
:1029C0009F1D06C080912A0290912B028E199F09AB
:1029D00090932B0280932A0220912A0230912B029D
:1029E00080914B0690E0880F991F880F991F281738
:1029F000390774F020912A0230912B0280914C0605
:102A000090E0880F991F880F991F8217930724F46D
:102A100090932B0280932A0280910001843108F464
:102A200092C0809108018F5F809308018EC0C4011D
:102A3000B301A80197010E94066020E830E040E061
:102A400050E00E94586079018A01C601B501A201D7
:102A500091010E94066020E830E040E050E00E94D2
:102A60005860E20EF31E041F151F20914E0630E041
:102A700040E050E0C801B7010E94066020E032E06B
:102A800040E050E00E945860790120910B013091A4
:102A90000C0140910B0150910C018091B40190E028
:102AA00066E0880F991F6A95E1F760915206841BD2
:102AB000950B70E00E944560260F371F30930C0184
:102AC00020930B0180910B0190910C0160E170E06B
:102AD0000E94456070932D0260932C0280918106C4
:102AE00081FF07C080912C0290912D028E0D9F1DB9
:102AF00006C080912C0290912D028E199F0990930F
:102B00002D0280932C0220912C0230912D02809175
:102B10004F0690E0880F991F880F991F28173907D3
:102B200074F020912C0230912D028091500690E09B
:102B3000880F991F880F991F8217930724F4909389
:102B40002D0280932C02109208011F910F91FF908B
:102B5000EF90DF90CF90BF90AF909F908F907F903D
:102B60006F905F904F903F902F9008951F920F921B
:102B70000FB60F9211242F933F934F935F938F9330
:102B80009F93EF93FF9380910001909131028431E4
:102B900008F04BC0992309F010C18091B00086FF66
:102BA00024C08091B0008F7B8093B00080912A0276
:102BB00090912B0287559E4F909329028093280273
:102BC00025E08D3D920718F08CED95E005C0875704
:102BD000914030F487E791E0909329028093280296
:102BE0008091280290912902AEC08091B00080644B
:102BF0008093B0008091510690E02DED36E0AC015D
:102C0000429FC001439F900D529F900D112420912F
:102C10002F0230913002821B930B909329028093F4
:102C2000280281E080930801C5C0992309F0C5C03E
:102C30008091B00086FF8CC08091B0008F7B809324
:102C4000B000E0912E02EE23E9F48091510690E06D
:102C50002DED36E0AC01429FC001439F900D529F85
:102C6000900D112420912F0230913002821B930B82
:102C700090932902809328021092300210922F0222
:102C8000469A98C089EA93E090932902809328029B
:102C9000E330B1F0E43028F4E13041F0E23001F506
:102CA0000AC0E43081F0E530D9F410C080912A02E6
:102CB00090912B0212C080912C0290912D020DC098
:102CC0008091DB0705C08091B50702C08091E307C2
:102CD00090E0880F991F880F991F87559E4F0BC052
:102CE000F0E0EE0FFF1FE95BF84F80819181880FC4
:102CF000991F87559C4F90932902809328028091B9
:102D000028029091290255E08D3D950718F08CED31
:102D100095E005C08757914030F487E791E09093A4
:102D200029028093280220912802309129022C5BED
:102D30003040309329022093280280912F029091F5
:102D40003002820F931F9093300280932F0232C083
:102D50008091B00080648093B0008CEB90E0909301
:102D600029028093280280912F029091300284548E
:102D70009F4F9093300280932F02809127028823E7
:102D800021F080915603833320F480912702823012
:102D900011F4469801C0469A80912E028F5F80936D
:102DA0002E0290915106981728F481E08093080133
:102DB00010922E0281E080933102209128023091FE
:102DC000290241E02F37340730F08FEF8093B300B2
:102DD0002F5F30400FC02F3F3105C9F0C0F0A9016F
:102DE0004F5F50404F37510550F480E88093B30057
:102DF00020583040309329022093280210C08FEFD2
:102E00008093B300509329024093280208C0209376
:102E1000B300109229021092280210923102FF9101
:102E2000EF919F918F915F914F913F912F910F90D3
:102E30000FBE0F901F90189510927C008FEC80931E
:102E40007A0008951F920F920FB60F9211246F927D
:102E50007F928F929F92AF92BF92CF92DF92EF922A
:102E6000FF920F931F932F933F934F935F936F9313
:102E70007F938F939F93AF93BF93EF93FF93809133
:102E800066028F5F809366028150E82FF0E0E231A6
:102E9000F10508F061C3E25CFF4F0C94AA608091D9
:102EA0007800909179009093600280935F02EAC16C
:102EB000809178009091790023C180917800909161
:102EC000790090936402809363024EC12091780050
:102ED000309179008091FA029091FB02821B930B52
:102EE0009093090680930806809108069091090640
:102EF00090935A028093590255C180917800909125
:102F000079002091F8023091F902821B930B909383
:102F100017068093160680911606909117069093D7
:102F20005802809357021AC38091780090917900DB
:102F30002091610230916202280F391F30936202A2
:102F40002093610284E00BC3409110015091110164
:102F500080917800909179009A01220F331F240FFD
:102F6000351F63E070E00E943160260F371F3695F1
:102F7000279536952795309311012093100185E010
:102F8000EEC280917800909179004091FE025091BC
:102F9000FF02841B950B9093470280934602809119
:102FA000460290914702029704F122E04E3E5207FA
:102FB00084F4209165022B5F209365022550809157
:102FC0008F0390919003845F914018F4215F2093C8
:102FD000650280916502853684F14F5F5F4F5093A3
:102FE000FF024093FE02845626C0809146029091D3
:102FF00047028F5F9F4F0CF5B2E047325B07ECF062
:10300000209165022550209365022B5F80918F03EC
:1030100090919003845F914018F42F5020936502A3
:10302000809165028C394CF4415050405093FF021E
:103030004093FE028C598093650281E080934802A0
:10304000809178009091790090930F0680930E06FE
:103050002091410330914203409143035091440336
:103060008091460290914702AA2797FDA095BA2F1A
:10307000820F931FA41FB51F8093410390934203B7
:10308000A0934303B0934403E0904103F0904203C4
:1030900000914303109144036091410370914203F6
:1030A000809143039091440320E034E040E050E0FD
:1030B0000E945860E21AF30A040B150BE0924103D8
:1030C000F092420300934303109344032EC1809176
:1030D00078009091790020915F0230916002280F72
:1030E000391F3093600220935F02CCC0209178009A
:1030F000309179008091610290916202820F931F5A
:103100009093620280936102109267022AC28091BA
:1031100000018A3071F480917800909179000196D5
:103120002091630230916402820F931F96958795D8
:1031300017C04091630250916402843158F020918D
:103140007800309179008FEF97E0821B930B841BFE
:10315000950B06C08091780090917900840F951F9F
:10316000909341028093400286E0F9C1209178005B
:10317000309179008091FA029091FB02821B930BAF
:10318000909309068093080680910806909109069D
:103190002091590230915A02820F931F909343025B
:1031A0008093420287E0DBC18091780090917900A2
:1031B0002091F8023091F902821B930B909317062D
:1031C000809316068091160690911706209157025B
:1031D00030915802820F931F9093450280934402CE
:1031E000BDC1209178003091790080915F0290916B
:1031F0006002280F391F809100018A3019F4220FD4
:10320000331F04C0220F331F220F331F309360027D
:1032100020935F0220915F0230916002C90168E053
:1032200070E00E94456070933D0260933C02809183
:103230005D0290915E02820F931F62E070E00E9437
:103240004560CB0170935E0260935D022091EE02B7
:103250003091EF02821B930B909313018093120124
:103260002091360230913702809112019091130122
:10327000820F931F62E070E00E94456070933702F6
:103280006093360281E06BC1209178003091790023
:103290008091610290916202280F391F8091000194
:1032A0008A3019F4220F331F04C0220F331F220F5C
:1032B000331F3093620220936102209161023091AA
:1032C0006202C90168E070E00E94456070933F02AD
:1032D00060933E0280915B0290915C02820F931F8B
:1032E00062E070E00E944560CB0170935C026093E5
:1032F0005B022091F0023091F102821B930B9093BC
:103300001501809314012091380230913902809187
:10331000140190911501820F931F62E070E00E94EA
:103320004560709339026093380283E018C11092AF
:10333000660281E080931F018091500290915102BA
:103340000196909351028093500280917800909161
:10335000790090931B0180931A0180911A0190913A
:103360001B013C01882499248091530290915402BE
:10337000A0915502B0915602680E791E8A1E9B1EBE
:1033800060925302709254028092550290925602BB
:10339000809152028F5F80935202823108F4DEC026
:1033A0008091160190911701A0911801B091190117
:1033B0007C018D0143E0EE0CFF1C001F111F4A959C
:1033C000D1F7E81AF90A0A0B1B0B84E090E0A0E0A1
:1033D000B0E0E80EF91E0A1F1B1FE60CF71C081DC3
:1033E000191D60914D02772767FD7095872F972FE4
:1033F0002AE33BED4FEF5FEF0E940660E60EF71EFB
:10340000081F191FC801B70128E030E040E050E074
:103410000E945860C901DA01809316019093170148
:10342000A0931801B0931901E0901006F0901106D6
:103430008091160190911701A0911801B091190186
:103440000027F7FC0095102FE81AF90A0A0B1B0B4E
:10345000E0926103F09262030093630310936403AC
:10346000A0904902B0904A02C0904B02D0904C020A
:103470006091490270914A0280914B0290914C02F6
:1034800020E130E040E050E00E945860A21AB30A08
:10349000C40AD50AA0924902B0924A02C0924B02D5
:1034A000D0924C028091490290914A02A0914B0225
:1034B000B0914C028E0D9F1DA01FB11F8093490239
:1034C00090934A02A0934B02B0934C02C0904E02DC
:1034D000D0904F026091490270914A0280914B0254
:1034E00090914C0220E130E040E050E00E945860B2
:1034F00050954095309521953F4F4F4F5F4FE20ECD
:10350000F31E33E0EE0CFF1C3A95E1F7C60125E00F
:10351000880F991F2A95E1F78C199D098E0D9F1D23
:1035200060E270E00E94456070934F0260934E022B
:10353000C401B30122E030E040E050E00E94586056
:1035400020935302309354024093550250935602F5
:1035500089E08093520202C01092660282E080935A
:1035600067028091670280937C00809166028823C5
:1035700019F08FEC80937A00FF91EF91BF91AF919A
:103580009F918F917F916F915F914F913F912F917B
:103590001F910F91FF90EF90DF90CF90BF90AF9071
:1035A0009F908F907F906F900F900FBE0F901F9005
:1035B0001895A0E0B0E0EFEDFAE10C947A6080EDB0
:1035C00097E00E94A213EC010CE842E1942E35EA48
:1035D000A32E2AE0E22E95EFF92E8EEEC82E83E080
:1035E000D82E1FECB12E05C0133019F40B3008F0A3
:1035F00009E080913C0290913D028C5F934024F45D
:1036000080911C0181500CC080913C0290913D0240
:103610008750944014F411E006C080911C018F5F24
:1036200080931C0110E080913E0290913F028C5FDC
:10363000934024F480911D0181500AC080913E0284
:1036400090913F028750944034F080911D018F5F2C
:1036500080931D0101C01F5F809140029091410243
:103660008C5F934024F480911E0181500AC08091A8
:103670004002909141028750944034F080911E01A5
:103680008F5F80931E0101C01F5F90926B0280913B
:1036900071028E7F80937102A092BC0080911C0108
:1036A0008A3038F480914504816080934504E0922B
:1036B0001C0180911C01863F38F080914504816097
:1036C00080934504F0921C0180911D018A3038F4EA
:1036D00080914504826080934504E0921D018091B1
:1036E0001D01863F38F08091450482608093450437
:1036F000F0921D0180911E018A3038F480914504BA
:10370000846080934504E0921E0180911E01863FF3
:10371000D0F080914504846080934504F0921E01AE
:1037200012C0CE010E94AC13882369F000D00F9222
:10373000EDB7FEB71182D382C2820E945D5E0F9008
:103740000F900F9004C080916B02882351F7109264
:103750001F01B0927A0080911F018823E1F30A30A3
:1037600020F48AE090E00E94CD13015009F03CCF94
:1037700086E490E00E94CD13CDB7DEB7EBE00C9469
:1037800096600F931F93CF93DF9310924D0283E0C7
:1037900090E00E94971DC82FD0E0C531D10508F0F8
:1037A0002A97C7BD84E690E00E94CD1380911A014C
:1037B00090911B0180529340E8F4C0E0D0E01AC021
:1037C000C7BD82E390E00E94CD1300D00F92EDB709
:1037D000FEB71182138302830E945D5E80911A01FD
:1037E00090911B010F900F900F908052934038F0F2
:1037F000219602C005E214E0CA3FD10508F31C2F50
:10380000C093180683E090E06C2F0E94F51D809114
:10381000290680FF0AC0809118068A508B3E28F046
:103820008091450480648093450417BD8CE291E04B
:103830000E94CD13DF91CF911F910F910895E0E287
:10384000F1E080E2819391E0E037F907D9F708953C
:1038500090916802E0E2F1E0E90FF11D80839F5F43
:1038600090936802089580916A02282F30E080FFCB
:103870000AC080916902882311F0815002C08091B2
:1038800070018093690221FF0CC0909169028091C0
:103890007001981719F41092690203C09F5F90930A
:1038A0006902C90183709070039711F41092690244
:1038B000E0E2F1E080E2819391E0E037F907D9F7A7
:1038C00090916902913118F4913058F503C091310B
:1038D000F9F411C080914504882319F58091700294
:1038E0008823F9F48091460484FD1BC080919201E5
:1038F0009091930116C023FF14C01092F50110920D
:10390000F4018EE090E060E070E00E94EF2009C0DA
:1039100080917001981719F4915090937001109252
:10392000690210926A020895DC014AEA20E030E060
:1039300007C0FD01E20FF31F8081480F2F5F3F4F4B
:1039400026173707B0F3842F089581E080931F0670
:1039500082E080931E0683E080931D0684E08093BE
:10396000200685E08093210686E08093220687E08A
:103970008093230688E08093240689E080932506BF
:103980008AE0809326068BE0809327068CE0809364
:103990002806089595E590931C06809100018431D6
:1039A00070F08AE080933C06109260068BE1809371
:1039B00038068EE480935D0680935E060DC083E03A
:1039C00080933C0680E2809360068EE18093380607
:1039D00090935D0690935E068AE68093290662E0E6
:1039E0006093820674E07093430610927F061092F3
:1039F0007C0648E04093360656EE5093370690E436
:103A0000909339063EE130932A068FEF80932C067F
:103A10008FE080932D0630932B0610922F06409353
:103A20003006909331061092320680932E06109243
:103A300045061092460610924706109248061092CC
:103A4000620610926306109264061092650690E872
:103A50009093490622E320934A066093810680935F
:103A60004B0650934C06709351068DE78093540695
:103A7000809355068093560690934D0685E5809376
:103A80004E0686E480934F068CED809350068CE3BF
:103A900080935206109253068FE58093660683EF5B
:103AA000809368068AEA80936A0680936B0684E1B5
:103AB0008093670680936906209357069AE5909352
:103AC000580620935906109280068EEF80936C065C
:103AD00024E620936D0690936E0690936F06909364
:103AE00070068BE480937106809372068093730650
:103AF0001092740686E08093750640937606909344
:103B000077063093780685EF8093790620937A06BE
:103B100060937B0610927D0610927E0681E2809370
:103B200040068DE2809341069093420608950E94DC
:103B3000EB600895CF92DF92EF92FF921F93CF93A5
:103B4000DF936C017B011AEAC0E0D0E007C0CE0130
:103B50008C0D9D1D0E94EB60180F2196CE15DF0580
:103B6000B0F3812FDF91CF911F91FF90EF90DF9005
:103B7000CF9008951F9388EE93E06DE470E00E946B
:103B80009A1D182F85E394E00E94EB60181781F4CA
:103B900088EE93E00E94EB60813051F480E996E07A
:103BA00068EE73E04EE450E00E94DB6081E001C00B
:103BB00080E01F910895682F863010F065E003C003
:103BC000882309F461E082E090E00E940361089597
:103BD00082E090E00E94EB60863030F082E090E07E
:103BE00063E00E94036183E008950E9403610895E9
:103BF00081E080939006EDE9F6E010821182128256
:103C00001382349686E0ED3DF807B9F780E480939F
:103C10009D06FF97808310929F068093A006809355
:103C2000A10690EC9093A2061092A3068093A4069E
:103C30008093A5061092A6069093A7069093A806D7
:103C40008093A9061092AA068093AB069093AC06C7
:103C50003D97A1E7B1E087E00D9001928150E1F737
:103C6000E0E9F6E09AEA8191980F86E0ED3DF807E9
:103C7000D1F79093DD0608950E94CA1C88E08093D6
:103C8000330630E13093340626E02093350694E67F
:103C900090933A0688E780933B0690933D06809385
:103CA0003E0620933F06309344068AE580935A06E9
:103CB00080E580935B0696E490935C0680E28093B7
:103CC0005F0690936106A3E8B6E0E9E7F1E08CE0D7
:103CD00001900D928150E1F7ECE1F6E09AEA8191D2
:103CE000980F86E0EF38F807D1F7908308950E9487
:103CF000CA1C8AE08093330680E18093340626E074
:103D0000209335069AE590933A0688E780933B0620
:103D100090933D0680933E0620933F0620E2209339
:103D2000440690935A0680E580935B068CE380936B
:103D30005C0620935F068BE480936106A3E8B6E0FF
:103D4000E3E8F1E08CE001900D928150E1F7ECE1C5
:103D5000F6E09AEA8191980F86E0EF38F807D1F7FC
:103D6000908308950E94CA1C8EE08093330620E160
:103D7000209334068CE08093350690E590933A06C4
:103D800086E980933B0690933D0680933E0686E04D
:103D900080933F0680E2809344068AE580935A062A
:103DA00090935B0681E080935C0620935F0684E637
:103DB00080936106A3E8B6E0EBE8F1E08CE00190C7
:103DC0000D928150E1F7ECE1F6E09AEA8191980FCB
:103DD00086E0EF38F807D1F7908308958091900638
:103DE000813011F080E00895E0E9F6E09AEA8191EF
:103DF000980F86E0ED3DF807D1F7908380E996E0D3
:103E000068EE73E04EE450E00E94F96081E00895AE
:103E10001F93182F80911C06853509F040C016307D
:103E200010F015E002C01123D1F1ECE1F6E09AEABE
:103E30008191980F86E0EF38F807D1F79083812FB2
:103E400090E0019724E730E0829FB001839F700DDE
:103E5000929F700D11246C597F4F8CE196E044E7DE
:103E600050E00E94F9608DE196E060E570E04CE082
:103E700050E00E94F960EDE1F6E06AEA8191680F96
:103E800086E0E932F807D1F78CE590E00E94036103
:103E9000812F0E94DB1D0E94575781E001C080E006
:103EA0001F9108950F931F93082F162F863080F4CB
:103EB000882311F401E006C0823039F0833049F0E4
:103EC000813039F40E94B21E06C00E94771E03C0E2
:103ED00005E00E943C1E1123B1F080E590E06CE00B
:103EE00070E00E949A1D182F8CE590E00E94EB6014
:103EF000181749F48DE196E060E570E04CE050E081
:103F00000E94DB6024C081E080931F0682E08093E2
:103F10001E0683E080931D0684E08093200685E0E2
:103F20008093210686E08093220687E08093230613
:103F300088E08093240689E0809325068AE08093B8
:103F400026068BE0809327068CE080932806802F3E
:103F50000E94081F1F910F910895FF920F931F93C6
:103F6000CF93DF93982F8150853008F093E0892F0D
:103F700090E0019724E730E0829F8001839F100D3D
:103F8000929F100D1124E801CC59DF4FCE0163E759
:103F900070E00E949A1DF82EC80189529F4F0E941E
:103FA000EB60F81681F4CE010E94EB60853559F480
:103FB0008CE196E0BE0144E750E00E94DB600E9485
:103FC000575781E001C080E0CDB7DEB7E5E00C9443
:103FD0009C60A0E0B0E0EFEEFFE10C94736081E044
:103FE00090E00E94EB60853511F4FF2407C081E06A
:103FF00090E065E50E940361FF24F39480E590E082
:104000006CE070E00E949A1DB82E8CE590E00E9452
:10401000EB60E82E00E0C1E0D0E0F3EACF2EF4E060
:10402000DF2EE4E02E2E75E0372E66E0462E57E0B8
:10403000552E48E0642E39E0732E2AE0822E9BE054
:10404000992E8CE0A82E1C2FFF2031F48C2F0E947B
:10405000AD1F882309F04DC000D000D00F92EDB7FE
:10406000FEB73196ADB7BEB711961C92D282C1820F
:10407000D483C3830E945D5E0F900F900F900F90CA
:104080000F90123039F0133041F0113031F40E94AA
:10409000B21E05C00E94771E02C00E943C1EBE14C4
:1040A00049F48DE196E060E570E04CE050E00E945C
:1040B000DB601BC0B1E0B0931F06E2E0E0931E0698
:1040C000F3E0F0931D0620922006309221064092E4
:1040D0002206509223066092240670922506809252
:1040E000260690922706A0922806812F0E94081F7C
:1040F00001E02196C630D10509F0A5CF002319F0C3
:1041000083E00E94DB1D0E94E81D182F0E94AD1F56
:1041100000D000D00F92EDB7FEB73196ADB7BEB765
:1041200011961C928AE894E092838183138314820F
:104130000E945D5E0F900F900F900F900F90FF20E8
:1041400021F40E94BA1D882391F400D00F92EDB79C
:10415000FEB7118289E694E0938382830E945D5EBC
:104160000F900F900F900E94F81D0E94EE1EEDE937
:10417000F6E020E0808118160CF42F5F349686E07C
:10418000ED3DF807B9F720931B06ADB7BEB71797FB
:10419000ADBFEDB7FEB7319611961C9288E494E05E
:1041A0009283818381E996E09483838325831682B9
:1041B0000E945D5E0F900F900F900F90EDB7FEB7CD
:1041C000118287E294E0938382830E945D5E0F9068
:1041D0000F900F90CDB7DEB7E2E10C948F600E9494
:1041E000116108950E94F36008952FB7F8943998EB
:1041F000389A98B1936098B99091B9009C7F909348
:10420000B9009AE29093B80010926B0210926D027E
:1042100010926E02882379F0E6EEF6E010821182A9
:10422000128213821482158216821782389687E0D2
:10423000E634F80799F778942FBF0895EF92FF922C
:104240000F931F9310926B020CEB10E084E9F801BE
:10425000808380E880831092BD001092BA008BEBBF
:10426000E82EF12CF70110821092B9001092B800DC
:1042700010926F0280E00E94F520F701108285E81D
:10428000F8018083809171028260809371021F9196
:104290000F91FF90EF9008951F920F920FB60F921B
:1042A00011242F933F934F938F939F93AF93BF937B
:1042B000EF93FF9380916B028F5F80936B0281502D
:1042C000E82FF0E0E731F10508F099C2E05BFF4F1D
:1042D0000C94AA6081E080936F0205C080916D020A
:1042E0008F5F80936D02E0916D02F0E0EE0FFF1F93
:1042F000EE0FFF1FE057F94F8585181624F08091C7
:104300006D028C3058F380916D028C3070F01092F9
:1043100073021092720210926D0285E080936B021C
:1043200080916E02880F8D5A04C080916D02880FB3
:104330008E5A8093BB0085E857C2E0916D02F0E091
:1043400093E0EE0FFF1F9A95E1F7EA51F94F818153
:104350008093BB0085E88093BC00E0916D02F0E0A3
:1043600083E0EE0FFF1F8A95E1F7EA51F94F808154
:1043700080FF85C0E0916D02F0E0B3E0EE0FFF1F1B
:10438000BA95E1F7E851F94F8081882329F08091AF
:104390001B06873008F449C2809172029091730223
:1043A000892B09F042C28091740290917502892B89
:1043B00009F03BC264C040916D02209174023091BB
:1043C000750281E090E002C0880F991F4A95E2F7DC
:1043D00082239323892B69F0E0916D02F0E0A3E042
:1043E000EE0FFF1FAA95E1F7E651F94F80E18083B8
:1043F0000BC0E0916D02F0E043E0EE0FFF1F4A9525
:10440000E1F7E651F94F1082E0916D02A0916D0243
:10441000F0E033E0EE0FFF1F3A95E1F7E651F94F78
:104420009081990F990F990FB0E023E0AA0FBB1F5D
:104430002A95E1F7A851B94F8C918770982B9093EA
:10444000BB0085E88093BC0040916D022091720210
:104450003091730281E090E002C0880F991F4A9565
:10446000E2F782239323892B51F08EED96E090930F
:1044700078028093770288E080937602D6C184E048
:1044800073C1E0917702F091780281918093BB0033
:1044900085E88093BC00F0937802E09377028091E6
:1044A0007602815080937602882309F4BEC183E0AE
:1044B0005BC18091B900803321F580917A02882315
:1044C00029F480916D028F5F80937A02E0916D02F2
:1044D000F0E093E0EE0FFF1F9A95E1F7EA51F94FF4
:1044E00083818F778F3769F0E0916D02F0E083E090
:1044F000EE0FFF1F8A95E1F7EA51F94F83818F5F35
:10450000838310926B0284E98093BC008AE090E080
:10451000909393018093920180916D028F5F8093BD
:104520006D0210926B025AC18091B9008034B9F1CA
:10453000E0916E02F0E0B3E0EE0FFF1FBA95E1F7F5
:10454000EA51F94F83818F77838380916E028F5F69
:1045500080936E0280916E028C30A0F010926E02F9
:104560001092750210927402809179028F5F80938D
:1045700079028C3038F010927902809171028D7F2F
:104580008093710280917102816080937102109218
:104590006B0284E98093BC0010926F026DC0E091C1
:1045A0006E02F0E0A3E0EE0FFF1FAA95E1F7EA51DB
:1045B000F94F838180688383E0916E02F0E043E0ED
:1045C000EE0FFF1F4A95E1F7EA51F94F808180FF16
:1045D0002DC0E0916E02F0E033E0EE0FFF1F3A9540
:1045E000E1F7E651F94FE081EE2351F0E031D9F5E2
:1045F0008EED96E0909378028093770288E031C048
:1046000080916E0290E023E0880F991F2A95E1F7D0
:104610008551994F909378028093770290916E0222
:10462000809179029817E1F483E01BC080916E02BB
:1046300090E0B3E0880F991FBA95E1F78551994F43
:1046400090937802809377028091710281FD06C079
:1046500090916E0280917902981711F482E001C066
:1046600081E08093760280917602813011F485E8B2
:1046700001C085EC8093BC0080917A028093700227
:1046800010927A02D2C08091BB00E0917702F09143
:1046900078028193F0937802E0937702809176021A
:1046A000815080937602823010F085EC03C0813017
:1046B00029F485E88093BC0086E056C080917102A1
:1046C00081FF2AC08091910380FD1BC0E0916E02A2
:1046D000F0E0A3E0EE0FFF1FAA95E1F7EA51F94FD2
:1046E00086818A3F71F4E0916E02F0E043E0EE0FC4
:1046F000FF1F4A95E1F7EA51F94F8081816080837D
:104700000BC0E0916E02F0E033E0EE0FFF1F3A9530
:10471000E1F7EA51F94F108280916E028F5F80932A
:104720006E0280916E028C30A0F010926E02109298
:10473000750210927402809179028F5F80937902E2
:104740008C3038F010927902809171028D7F8093C5
:10475000710210926B0284E98093BC008091710217
:104760008160809371025FC080936B025EC088E9B4
:10477000E0CD80916C0290E00896880F991FD9CD0A
:1047800080916C02813049F0813020F0823009F054
:104790004CC006C080911C01CCCD80911D01C9CDBB
:1047A00080911E01C6CD80E8C4CD10926B0284E9D1
:1047B0008093BC0010926F028AE090E09093930186
:1047C0008093920180916C02823088F480916C0217
:1047D0008F5F80936C0282E180936B028091710203
:1047E0008E7F8093710285EA8093BC001EC0109278
:1047F0006C028091710281608093710216C01092E8
:104800006B0284E98093BC00809171028160809387
:1048100071028AE090E0909393018093920110924C
:104820006D0210926E0210926F02FF91EF91BF9194
:10483000AF919F918F914F913F912F910F900FBE0C
:104840000F901F901895FF920F931F93CF93DF93B4
:10485000982F80915F03882309F08EC080910D020C
:10486000882309F089C09D3008F088C0992311F48D
:1048700086E085C0C92FD0E02197FE0143E0EE0F0E
:10488000FF1F4A95E1F7EA51F94F838187FF76C010
:10489000808180FD02C083E072C080ED97E00E94BD
:1048A000A2138C018091710280FD05C0C8010E9495
:1048B000AC138823B9F381E090E002C0880F991F00
:1048C000CA95E2F79093750280937402E7EEF6E0E2
:1048D00040E050E061E070E0209174023091750298
:1048E000CB01042E02C0880F991F0A94E2F782239D
:1048F0009323892B11F0108211824F5F5F4F3896FE
:104900004C30510549F710926E021092DE0610925B
:10491000E50635EAF32E10926B02809171028E7FCC
:1049200080937102F092BC008091710280FD05C0FD
:10493000C8010E94AC138823B9F38091740290914E
:104940007502892B29F0C8010E94AC13882319F342
:104950008091DE06823011F084E011C08EED96E089
:1049600067E070E00E94941C9091E506891711F4AD
:1049700080E005C085E003C081E001C082E0CDB7E2
:10498000DEB7E5E00C949C601F93CF93DF93182F64
:1049900080915F03882309F095C080910D028823E0
:1049A00009F090C01D3008F08FC0112389F0E12F6D
:1049B000F0E053E0EE0FFF1F5A95E1F7E252F94F96
:1049C000838187FF81C0808180FD02C083E07DC03C
:1049D0008091DE06823011F084E077C08EED96E0A3
:1049E00067E070E00E94941C9091E506891711F031
:1049F00085E06BC080ED97E00E94A213EC018091EE
:104A0000710280FD05C0CE010E94AC138823B9F36A
:104A1000112369F48FEF90E09093730280937202F8
:104A2000E7EEF6E040E050E061E070E00CC0212FDE
:104A300030E02150304081E090E002C0880F991FA3
:104A40002A95E2F7E9CF2091720230917302CB01EF
:104A5000042E02C0880F991F0A94E2F78223932341
:104A6000892B11F0108211824F5F5F4F38964C30C6
:104A7000510549F710926D0215EA10926B02809170
:104A800071028E7F809371021093BC00809171023D
:104A900080FD05C0CE010E94AC138823B9F380913C
:104AA000720290917302892B29F0CE010E94AC13FF
:104AB000882319F38091720290917302892B21F45B
:104AC00080E003C081E001C082E0DF91CF911F91BF
:104AD000089580E090E0FC01EE0FFF1FDF01A95B6D
:104AE000B84F11961C921E92E558F84F1182108211
:104AF00001968A31910579F71092F3021092F20231
:104B00001092F1021092F0021092EF021092EE0257
:104B100008951F920F920FB60F9211240F931F93B7
:104B20002F933F934F935F936F937F938F939F93B5
:104B3000AF93BF93CF93DF93EF93FF938091820660
:104B400082FDBCC020918600309187008091EA02EE
:104B50009091EB02281B390B809186009091870081
:104B60009093EB028093EA02C9018D549440009126
:104B7000E8021091E902835F9A4170F400934607BE
:104B80000430110514F01092940181E090E09093AC
:104B9000E9028093E802D7C10D3011050CF0D3C1B2
:104BA000C9018B5F9040845B914008F06AC0E901C5
:104BB000C25DD140F801EE0FFF1FE95BF84F808125
:104BC0009181FE01E81BF90BCF01F7FF03C090951F
:104BD00081959F4F06975CF480915603883C20F4A2
:104BE00080915603865F01C088EC80935603F801DC
:104BF000EE0FFF1FE95BF84F20813181C901880F5B
:104C0000991F820F931F8C0F9D1F64E070E00E941C
:104C100045609B01CE010196861797071CF4215031
:104C2000304006C021976C177D0714F42F5F3F4F6B
:104C300080915603E801CC0FDD1F833CB8F0FE01E4
:104C4000E95BF84F80819181A901481B590BCA018A
:104C500063E070E00E944560CB01880F991F860FCA
:104C6000971FC558D84F9983888304C0C558D84F1B
:104C700019821882F801EE0FFF1FE95BF84F3183AC
:104C80002083F8013196F093E902E093E8028091E5
:104C90000001843108F057C1E530F10511F45D9A47
:104CA00006C05D98E630F10511F45C9A05C05C9889
:104CB000379711F45B9A47C15B9845C120918600F4
:104CC000309187008091E6029091E702281B390B12
:104CD00080918600909187009093E7028093E6028E
:104CE000C9018D54944040917D02835F9A4108F040
:104CF00070C040937B0280917B02843008F449C0ED
:104D00009091460780917B02981709F042C030913C
:104D10007C023B30D0F11092940120E032C03F3150
:104D2000B8F0E22FF0E0EE0FFF1FDF01A95BB84FF4
:104D30008D919C91DF01A856BD4F8D939C93DF010F
:104D4000A558B84F8D919C91E258FD4F9183808377
:104D5000E22FF0E0EE0FFF1FDF01A453BD4F8D9156
:104D60009C91DF01A95BB84F11969C938E93DF0154
:104D7000AE54BD4F8D919C91E558F84F918380833F
:104D80002F5F2D3060F23F3FB9F03F5F30937C02E0
:104D900013C080917C02853620F08AE080937C02EB
:104DA00002C010927C02809100018A3011F084319F
:104DB00010F0289A01C0289881E080937D028091AC
:104DC0005F03882309F0BFC080917B028093460770
:104DD000BAC04D3008F08BC0C9018B5F9040845B36
:104DE000914008F067C0E901C25DD140042F10E096
:104DF000F801EE0FFF1FE453FD4F0190F081E02D0D
:104E0000CE018E1B9F0B05960B97B0F480917C0210
:104E10008A3120F080915603865F05C08B3028F0E0
:104E2000809156038E5F8093560380915603893C90
:104E300018F088EC80935603CF01880F991F8E0FCE
:104E40009F1F8C0F9D1F64E070E00E9445609B01D6
:104E5000CE010196861797071CF42150304006C0FA
:104E600021976C177D0714F42F5F3F4F80915603F5
:104E7000E801CC0FDD1F8E3B88F0CE54DD4FC90119
:104E80008E1B9F0B63E070E00E944560CB01880F92
:104E9000991F860F971F9983888304C0CE54DD4FD6
:104EA00019821882000F111F04531D4FF80131831E
:104EB000208309C0809100018A3011F0843110F004
:104EC000289A01C0289880910001843190F44530DF
:104ED00011F45D9A05C05D98463011F45C9A05C0E6
:104EE0005C98473011F45B9A04C05B9802C044316F
:104EF00020F44F5F40937D0226C0443121F580911C
:104F000000018A3011F0843110F0289A01C02898ED
:104F10008EE180937D02C8E9D2E020E030E0899103
:104F20009991F901EE0FFF1FDF01A95BB84F1196B0
:104F30009C938E93E558F84F118210822F5F3F4F5C
:104F40002D30310561F7FF91EF91DF91CF91BF9146
:104F5000AF919F918F917F916F915F914F913F9111
:104F60002F911F910F910F900FBE0F901F901895CA
:104F7000EF92FF920F931F93E0903806FF24EE0C00
:104F8000FF1CEE0CFF1C0027F7FC0095102F609112
:104F90000103709102038091030390910403A8011F
:104FA00097010E9458603093C8052093C70560910F
:104FB000090370910A0380910B0390910C03A801DF
:104FC00097010E9458603093CA052093C9058091CB
:104FD00001089091020864E070E00E9445607093BF
:104FE000CC056093CB05809111089091120864E084
:104FF00070E00E9445607093CE056093CD052091CE
:105000004002309141028091F2029091F302821BA2
:10501000930B9093D0058093CF05609161037091BD
:105020006203809163039091640325E030E040E0E7
:1050300050E00E9458603093D2052093D1058091B2
:105040004602909147029093D4058093D3058091B6
:105050009501909196019093D8058093D705809102
:105060001001909111019093DA058093D9058091F8
:1050700056030BED15E08093DB051092DC05609183
:105080000D0870910E0880910F08909110082091E2
:10509000DB013091DC014091DD015091DE010E9485
:1050A00058603093DE052093DD058091E7068093FC
:1050B000DF05F80115828091EF068093E1051782E4
:1050C0008091F7068093E30511868091FF06809317
:1050D000E505138680912A0290912B029093F005AA
:1050E0008093EF0580919208909193089093F40536
:1050F0008093F30580919608909197089093F60518
:105100008093F50560916503709166038091670354
:105110009091680325E030E040E050E00E94586044
:105120003093F8052093F70580914503909146034D
:105130009093FE058093FD05809198088093010669
:10514000F80117A28091ED039091EE03909304066D
:10515000809303068091EF039091F00390930606ED
:105160008093050680914504882321F480914604AC
:10517000882321F08091C605816003C08091C60517
:105180008E7F8093C6051F910F91FF90EF90089539
:10519000ABE1B0E0EEECF8E20C9473608091400279
:1051A000909141022091F2023091F302281B390BB9
:1051B0003F8B2E8B30930708209306088091360290
:1051C0009091370268E070E00E9445606A8F7B8FA3
:1051D000809138029091390268E070E00E94456049
:1051E000688F798F4A8D5B8D5093D3074093D20798
:1051F000888D998D9093CB078093CA0720914402A4
:1052000030914502C901880F991F820F931F880FA3
:10521000991F40910108509102089A01220F331FF3
:10522000240F351F820F931F64E070E00E944560D9
:10523000709302086093010820914202309143026A
:10524000C901880F991F820F931F880F991F4091E2
:105250001108509112089A01220F331F240F351F95
:10526000820F931F64E070E00E9445607093120803
:10527000609311082091440230914502C901880FC2
:10528000991F820F931F880F991FAA2797FDA0953A
:10529000BA2F2091110330911203409113035091C2
:1052A0001403280F391F4A1F5B1F209311033093EB
:1052B0001203409313035093140320914202309140
:1052C0004302C901880F991F820F931F880F991FEE
:1052D000AA2797FDA095BA2F2091150330911603A8
:1052E0004091170350911803280F391F4A1F5B1F65
:1052F000209315033093160340931703509318031C
:1053000020914402309145028091DC079091DD07A5
:10531000820F931F9093DD078093DC072091420258
:10532000309143028091090890910A08820F931FDF
:1053300090930A08809309088091FC029091FD02E5
:1053400001969093FD028093FC0220910E0630910D
:105350000F068091FE029091FF02281B390B442713
:1053600037FD4095542F8091190390911A03A09115
:105370001B03B0911C03820F931FA41FB51F8093C2
:10538000190390931A03A0931B03B0931C038FEC93
:1053900080937A0010921F012091290330912A03F3
:1053A00040912B0350912C032A8B3B8B4C8B5D8BB4
:1053B0008091210390912203A0912303B0912403B3
:1053C0008E879F87A88BB98B2E893F89442737FD0D
:1053D0004095542F2A873B874C875D872090310367
:1053E000309032034090330350903403220E331E2A
:1053F000441E551E209231033092320340923303F3
:105400005092340360900D0870900E0880900F0841
:1054100090901008620E731E841E951E60920D08F7
:1054200070920E0880920F089092100830917603C7
:105430003987332309F060C180917703882309F00D
:105440005BC18091290686FF57C12A893B894C8917
:105450005D89283B64E936076EEF46076FEF560714
:1054600024F428EB34E94EEF5FEF29833A834B8332
:105470005C8329543B464140504044F028E43BE6DD
:1054800041E050E029833A834B835C832E853F853E
:1054900048895989283B64E936076EEF46076FEF64
:1054A000560724F428EB34E94EEF5FEF2D833E835B
:1054B0004F83588729543B464140504044F028E4EC
:1054C0003BE641E050E02D833E834F835887A09018
:1054D000B701BB24CC24DD24888D998D9C01442701
:1054E00037FD4095542F6D817E818F8198850E9474
:1054F000066020E038E040E050E00E945860CA01B9
:10550000B901A60195010E94066020E030E140E06B
:1055100050E00E94586079018A01E092E103F09224
:10552000E2030093E3031093E403AA8DBB8D9D0176
:10553000442737FD4095542F69817A818B819C8166
:105540000E94066020E038E040E050E00E94586091
:10555000CA01B901A60195010E94066020E030E170
:1055600040E050E00E945860C901DA01F092B007B3
:10557000E092AF073093B4072093B3079C01AD01CD
:105580002E193F09400B510B79018A012093DD034D
:105590003093DE034093DF035093E003620E731EEB
:1055A000841E951E60920D0870920E0880920F085E
:1055B000909210088091B8018823A1F4CA01B90122
:1055C00022E030E040E050E00E945860221A330AA6
:1055D000440A550A20923103309232034092330339
:1055E00050923403AA84BB84CC84DD84AE0CBF1CEF
:1055F000C01ED11EE090B601FF2400E010E0C601FD
:10560000B5012D813E814F8158850E94066020E0C2
:1056100038E040E050E00E945860CA01B901A8019A
:1056200097010E94066020E030E140E050E00E94D7
:105630005860922E832E742E652E2093E9033093AA
:10564000EA034093EB035093EC03C601B5012981B3
:105650003A814B815C810E94066020E038E040E0A6
:1056600050E00E945860CA01B901A80197010E9448
:10567000066020E030E140E050E00E945860B9014F
:10568000FA012093E5037093E6034093E703F09358
:10569000E8038E899F8997FF03C0909581959F4F5E
:1056A000813491050CF440C0292D382D472D562DFD
:1056B000C901DA01B7FF07C0B095A0959095819513
:1056C0009F4FAF4FBF4F81389105A105B10584F4BD
:1056D000CB01DF01B7FF07C0B095A09590958195EC
:1056E0009F4FAF4FBF4F81389105A105B105E4F041
:1056F00081E080934A0318C01092B4071092B30758
:105700001092B0071092AF071092E5031092E603D3
:105710001092E7031092E8031092E9031092EA0353
:105720001092EB031092EC03E090E903F090EA038F
:105730000091EB031091EC03A090E503B090E60319
:10574000C090E703D090E803C601B5012CE93FEF14
:105750004FEF5FEF0E94586029014E0C5F1C509282
:10576000C6074092C507C801B70124E630E040E013
:1057700050E00E94586019012A183B083092BB077C
:105780002092BA07E0900D08F0900E0800910F08E3
:1057900010911008A090DB01B090DC01C090DD01F9
:1057A000D090DE01C601B50128E631E040E050E0CE
:1057B0000E9406603B014C01E616F7060807190730
:1057C000A4F0C601B50128E93EEF4FEF5FEF0E945C
:1057D0000660E60EF71E081F191FE0920D08F092F2
:1057E0000E0800930F081093100880910D089091F7
:1057F0000E08A0910F08B0911008B7FF0CC0860DDD
:10580000971DA81DB91D80930D0890930E08A093B5
:105810000F08B0931008288D398D240D351D79019E
:105820000027F7FC0095102F80912D0390912E03F7
:10583000A0912F03B09130038E0D9F1DA01FB11FAB
:1058400080932D0390932E03A0932F03B0933003E6
:105850008091700390917103281B390B442737FD09
:105860004095542F8A899B89AC89BD89280F391F9F
:105870004A1F5B1F2093290330932A0340932B0375
:1058800050932C03E0909F01F090A0010091A101A2
:105890001091A201E216F30604071507C4F488EA82
:1058A00091E6A0E0B0E08E199F09A00BB10B8093A8
:1058B000290390932A03A0932B03B0932C03809386
:1058C0002D0390932E03A0932F03B0933003222730
:1058D0003327A9012E193F09400B510B8091290351
:1058E00090912A03A0912B03B0912C038217930768
:1058F000A407B507B4F4D801C701885A9146A0405F
:10590000B0408093290390932A03A0932B03B09374
:105910002C0380932D0390932E03A0932F03B09319
:1059200030032A8D3B8D220D331D79010027F7FCB2
:105930000095102F8091250390912603A0912703B5
:10594000B09128038E0D9F1DA01FB11F80932503CA
:1059500090932603A0932703B093280380917203AA
:1059600090917303281B390B442737FD4095542F22
:105970008E859F85A889B989280F391F4A1F5B1F0B
:105980002093210330932203409323035093240355
:10599000E0909B01F0909C0100919D0110919E016F
:1059A000E216F30604071507C4F488EA91E6A0E0BE
:1059B000B0E08E199F09A00BB10B80932103909347
:1059C0002203A0932303B093240380932503909391
:1059D0002603A0932703B093280322273327A90186
:1059E0002E193F09400B510B809121039091220306
:1059F000A0912303B091240382179307A407B5074E
:105A0000B4F4D801C701885A9146A040B0408093B1
:105A1000210390932203A0932303B0932403809344
:105A2000250390932603A0932703B0932803809126
:105A3000310390913203A0913303B09134038093EA
:105A40001D0390931E03A0931F03B0932003809126
:105A5000210390912203A0912303B091240380930A
:105A6000010390930203A0930303B0930403809176
:105A7000290390912A03A0912B03B0912C038093CA
:105A8000090390930A03A0930B03B0930C03809136
:105A9000250390912603A0912703B09128038093BA
:105AA000050390930603A0930703B0930803809126
:105AB0002D0390912E03A0912F03B091300380937A
:105AC0000D0390930E03A0930F03B09310038091E6
:105AD00012019091130168E070E00E94456070939C
