:10F8000011241FBECFEFD0E1DEBFCDBF11E0A0E0DD
:10F81000B1E0E0EEFBEF02C005900D92A030B10721
:10F82000D9F712E0A0E0B1E001C01D92A230B1070B
:10F83000E1F70C943B7C0C941D7C0895982F8091EB
:10F84000C00085FFFCCF9093C60008958091C00052
:10F850008823E4F78091C600992708958DE40E94DB
:10F860001E7C8BE40E941E7C82E40E941E7C8CE441
:10F870000E941E7C0895CFEFD0E1DEBFCDBFE0E057
:10F88000F0E014915F01772474BE98E10FB6F8940C
:10F8900090936000109260000FBE7092C5008AE2E3
:10F8A0008093C4008091C00082608093C0009093D8
:10F8B000C10086E08093C200EF01072D8091C00057
:10F8C00087FF0DC0013031F48091C6008A3AB1F152
:10F8D00000E005C08091C6008B3109F401E0CE0143
:10F8E00021968436910528F11F3F41F0112331F014
:10F8F000E0910001F091010109951BC01092C50033
:10F900008AE28093C4008AE00E941E7C8DE00E94FF
:10F910001E7C86E50E941E7C80E30E941E7C8EE297
:10F920000E941E7C81E30E941E7C8AE30E941E7C52
:10F9300005C080E593EC0197F1F7C0CF0E942E7CC3
:10F940000E94267C813611F489E547C1813471F427
:10F950000E94267CA82EBB24BA2CAA240E94267CB6
:10F960009927A82AB92AB694A79406C1823629F401
:10F9700089E50E941E7C81E00BC1823409F083C0BE
:10F980000E94267C9927D82FCC270E94267C992775
:10F99000C82BD92B0E94267C082F12E0812E11E063
:10F9A000912EEE24FF2464010894811C911CEC1616
:10F9B000FD0618F40E94267C01C08FEFD6018C93BF
:10F9C0000894E11CF11CBFEFEB16F10461F358F34E
:10F9D000E4E77E1609F0DEC0063409F03DC0FFEF13
:10F9E000AF16F7EFBF0608F033C0DE01A5016627AA
:10F9F0007727440F551F661F771F6A017B01C2E0FE
:10FA0000D1E001E08991992729913327322F2227CC
:10FA1000822B932B0C01FA0100935700E8951124D7
:10FA20004E5F5F4F6F4F7F4F129761F785E0F60192
:10FA300080935700E89507B600FCFDCF81E18093E5
:10FA40005700E89576956795579547955A0194C064
:10FA500080E00E941E7C90C0053409F08DC0F50145
:10FA60009E01A2E0B1E0E1BD8F2F992782BD8D916B
:10FA700080BD3196FA9AF99AF999FECF215030401B
:10FA800091F75F0179C0873609F047C00E94267C54
:10FA90009927D82ECC240E94267C9927C82AD92AB7
:10FAA0000E94267C863411F5E6016501EE24FF24D0
:10FAB000CC0CDD1CEE1CFF1CF60105911491802F6F
:10FAC0000E941E7C812F99270E941E7C82E090E07C
:10FAD000A0E0B0E0C80ED91EEA1EFB1E229761F717
:10FAE000F694E794D794C79456012ACF853409F049
:10FAF00027CF7501E1BC8F2D992782BDF89A089414
:10FB0000E11CF11C80B50E941E7C0894C108D1083C
:10FB1000C114D10479F7570113CF853601F594E765
:10FB2000791651F580E090E0A0E0B0E023E0FC0120
:10FB300020935700E89507B600FCFDCF80509F4FFB
:10FB4000AF4FBF4F8F3FE7EF9E07E0E0AE07E0E02B
:10FB5000BE0768F381E180935700E8950DC08534B6
:10FB600069F488E190E02CE00FB6F894A8958093B2
:10FB700060000FBE209360008DE02FC08035E1F360
:10FB80008C34D1F3803711F483E527C0843721F416
:10FB90000E941E7C80E021C0843521F40E94267CD6
:10FBA000782EEACF8B3109F4C9CE8A3A09F4C6CE51
:10FBB000863529F480E30E941E7C81E30EC08337E2
:10FBC00041F489E00E941E7C86E90E941E7C8EE141
:10FBD00004C08B3109F4B4CE8FE30E941E7CB0CEFA
:040000030000F80001
:00000001FF
