:100000000C94BB060C9401070C9401070C94010797
:100010000C9401070C9401070C9401070C94010740
:100020000C9401070C945C190C9401070C940107C3
:100030000C941F340C9401070C9401070C940107D5
:100040000C9401070C9401070C9418160C940107EA
:100050000C942E0C0C9401070C94F80B0C940107D3
:100060000C94181C0C9401070C94B22F0C940107EB
:100070000C9427770C9401070C942372431C481CA2
:100080004D1C561C6D1C841C941CA41CC11CAD1E54
:10009000841C6F1D801DAF1DCD1DEA1D441E9F1EBB
:1000A0007D200F21CC214C22B52265236C25C9254A
:1000B00036268026CB2618276927CB272A28C4284E
:1000C0005F29592AD12F05304830B830D03011314E
:1000D000C8318F328F328F328F328F328F328F32E0
:1000E0008F328F328F328F32443246324B3263320C
:1000F00065320A0D426174743A002025642043651C
:100100006C6C732000204C6F77207761726E696E83
:1001100067206C6576656C3A2025642E2564000A9C
:100120000D466F756E6420424C2D4374726C3A20FC
:10013000002564000A0D0A0D2121204D4953534921
:100140004E4720424C2D4354524C3A2025642021E6
:1001500021000A0D3D3D3D3D3D3D3D3D3D3D3D3D8B
:100160003D3D3D3D3D3D3D3D3D3D3D3D3D3D3D3DBF
:100170003D3D3D3D3D3D3D000A0D43616C69627270
:100180006174696E67207072657373757265207330
:10019000656E736F722E2E004F4B0A0D000A0D46CE
:1001A0006C696768742D74696D65202575206D69AB
:1001B0006E2020546F74616C3A2575206D696E0055
:1001C0000A0D436F6E74726F6C3A2000486561646B
:1001D000696E67486F6C64004E6F726D616C2028A9
:1001E0004143432D4D6F646529000A0D3D3D3D3D62
:1001F0003D3D3D3D3D3D3D3D3D3D3D3D3D3D3D3D2F
:100200003D3D3D3D3D3D3D3D3D3D3D3D3D3D3D0A51
:100210000D00416E676C654E69636B2020202020C5
:100220002020416E676C65526F6C6C20202020206E
:1002300020204163634E69636B2020202020202012
:100240002020416363526F6C6C20202020202020EE
:1002500020205961774779726F20202020202020AC
:1002600020204865696768742056616C7565202098
:1002700020204163635A202020202020202020209D
:1002800020204761732020202020202020202020B3
:100290002020436F6D706173732056616C7565200B
:1002A0002020566F6C74616765205B302E31565D7F
:1002B00020205265636569766572204C6576656CB1
:1002C00020204779726F20436F6D70617373202017
:1002D00020204D6F746F722031202020202020209C
:1002E00020204D6F746F722032202020202020208B
:1002F00020204D6F746F722033202020202020207A
:1003000020204D6F746F7220342020202020202068
:1003100020203136202020202020202020202020B6
:1003200020203137202020202020202020202020A5
:100330002020313820202020202020202020202094
:100340002020313920202020202020202020202083
:100350002020536572766F2020202020202020202E
:100360002020486F7665726761732020202020204E
:10037000202043757272656E74205B302E31415DB2
:1003800020204361706163697479205B6D41685D11
:100390002020486967687420536574706F696E74B3
:1003A0002020323520202020202020202020202026
:1003B0002020323620202020202020202020202015
:1003C0002020436F6D7061737320536574706F6983
:1003D0006E744932432D4572726F722020202020A6
:1003E0002020424C204C696D697420202020202060
:1003F00020204750535F4E69636B2020202020202F
:1004000020204750535F526F6C6C2020202020200A
:10041000202021212120494E434F4D504154494233
:100420004C4520212121002E000A0D20444143206B
:100430006F7220493243204552524F522120436867
:1004400065636B204932432C2033567265662C203D
:1004500044414320616E6420424C2D4374726C0011
:100460005B25695D005B25695D002B204D696B7222
:100470006F4B6F70746572202B0048573A56256495
:100480002E25642053573A25642E25642563005396
:10049000657474696E673A2564202573004861723B
:1004A0006477617265204572726F7220313A2564FB
:1004B000202121004D697373696E6720424C2D43E2
:1004C00074726C3A25642121004D6978657220456B
:1004D00072726F722100493243204552524F5221AD
:1004E0002121004865696768743A20202535690034
:1004F000536574706F696E743A2535690050726582
:1005000073737572653A253569004F666673657455
:100510003A20202535690048656967687420636F53
:100520006E74726F6C0044495341424C454400481C
:10053000656967687420636F6E74726F6C004449FC
:100540005341424C4544006163742E2062656172E0
:10055000696E67004E69636B3A20202020202025B9
:10056000356900526F6C6C3A202020202020253500
:100570006900436F6D706173733A202020253569DF
:10058000004B313A25346920204B323A253469201A
:10059000004B333A25346920204B343A2534692006
:1005A000004B353A25346920204B363A25346920F2
:1005B000004B373A25346920204B383A25346920DE
:1005C000004E693A2534692020526F3A253469205B
:1005D0000047733A253469202047693A2534692059
:1005E0000050313A253469202050323A25346920B0
:1005F0000050333A253469202050343A253469209C
:10060000004779726F202D2053656E736F72004E14
:1006100069636B25346920282533692E25692900F3
:10062000526F6C6C25346920282533692E25692981
:100630000047696572253469202825336929004EF1
:1006400069636B2025346920282533692E25782994
:1006500000526F6C6C2025346920282533692E25C3
:1006600078290059617720202534692028253369AD
:1006700029004E69636B20253469202825336929B8
:10068000282533692900526F6C6C20253469202895
:1006900025336929282533692900596177202025C8
:1006A00034692028253369292825336929004143E5
:1006B00043202D2053656E736F72004E69636B206B
:1006C00025346920282533692900526F6C6C202558
:1006D0003469202825336929005A20202020253418
:1006E0006920282533692900566F6C746167653A63
:1006F0002020202533692E253169560043757272FA
:10070000656E743A2020202533692E253169410019
:10071000506F7765723A20202020202534695700D9
:100720004469736368617267653A202535696D4174
:10073000680052656365697665720052432D5253B5
:1007400053493A202020202534690052432D517509
:10075000616C6974793A202534690052432D4368ED
:10076000616E6E656C733A25346900436F6D70611C
:1007700073730048656164696E673A2020253569A6
:100780000056616C75653A2020202025356900539C
:100790006F6C6C3A202020202025356900506F7442
:1007A00069313A202025336900506F7469323A204C
:1007B0002025336900506F7469333A20202533694E
:1007C00000506F7469343A202025336900506F74EB
:1007D00069353A202025336900506F7469363A2014
:1007E0002025336900506F7469373A20202533691A
:1007F00000506F7469383A202025336900536572C0
:10080000766F202000536574706F696E7420202508
:10081000336900506F736974696F6E3A20253369CC
:100820000052616E67653A2533692D2533690045AD
:10083000787465726E436F6E74726F6C2020004E18
:10084000693A2534692020526F3A253469200047DF
:10085000733A253469202047693A253469200048D5
:10086000693A253469202043663A253469200042DC
:100870004C2D4374726C204572726F727320002588
:10088000336420253364202533642025336420001D
:1008900025336420253364202533642025336420E8
:1008A00000253364202533642025336420253364F8
:1008B0002000424C2054656D7065726174757265DC
:1008C00000253369202533692025336920253369C4
:1008D00020002533692025336920253369202533FD
:1008E00069200025336920253369202533692025B7
:1008F00033692000424C2D4374726C20666F756E14
:1009000064200020256320202025632020202563EB
:10091000202020256320002025632020202563201F
:10092000202025632020202563200020256320200F
:10093000202D2020202D2020202D2000313000319E
:100940003100313200466C696768742D54696D65F9
:10095000202000546F74616C3A2535756D696E0006
:100960004163743A20202535756D696E00287265E3
:1009700073657429000A0D47656E65726174696E4E
:10098000672064656661756C7420506172616D6585
:1009900074657220536574202564000A0D557369CF
:1009A0006E6720506172616D657465722053657465
:1009B000202564000A0D47656E65726174696E6773
:1009C0002064656661756C74204D69786572205489
:1009D00061626C65000A0D4D697865722D436F6E1A
:1009E0006669673A202725732720282575204D6FD3
:1009F000746F727329000A0D3D3D3D3D3D3D3D3D07
:100A00003D3D3D3D3D3D3D3D3D3D3D3D3D3D3D3D16
:100A10003D3D3D3D3D3D000A0D414343206E6F7419
:100A20002063616C69627261746564210D0A000063
:100A3000008F001E01AD013B02CA025803E6037499
:100A40000402058F051B06A7063307BE074808D218
:100A5000085B09E3096B0AF20A780BFD0B810C04B1
:100A60000D860D070E870E060F840F00107B10F504
:100A7000106E11E5115B12CF124213B313231492BF
:100A800014FE146A15D3153B16A11605176717C86F
:100A90001727188318DE1837198E19E319361A87A5
:100AA0001AD61A231B6E1BB61BFD1B411C831CC3CD
:100AB0001C001D3C1D751DAB1DE01D121E421E6F4E
:100AC0001E9A1EC31EE91E0D1F2E1F4D1F691F8477
:100AD0001F9B1FB01FC31FD31FE11FEC1FF51FFB80
:100AE0001FFF1F002003010000F16B00020101E461
:100AF0006C01030202786D02000303D56D25326993
:100B00002E25316956002533642563202530336452
:100B10006D00537461747573004552524F523A2000
:100B200025326400253469202532693A253032693E
:100B3000002534696D25630025336920253369203C
:100B40002533692025336900253369202533692041
:100B5000253369202533690054656D7065726174B1
:100B600075726573202020200025634320202020FB
:100B700020002532692E2531695620202533692E23
:100B8000253169410025346957202536696D416852
:100B9000002532756D2F73205361743A256420004F
:100BA00020203344004E6F4678004447505300489D
:100BB0006F6D653A2533646D202533642563004EDF
:100BC0006F204E6176694374726C21000A0D77774D
:100BD000772E4D696B726F4B6F707465722E646502
:100BE0002028632920486953797374656D73204701
:100BF0006D6248000A0D74686520757365206F6624
:100C0000207468697320736F6674776172652069F8
:100C100073206F6E6C79207065726D697474656491
:100C2000200A0D6F6E206F726967696E616C204DCE
:100C3000696B726F4B6F707465722D486172647767
:100C4000617265004143542044534C004A65746905
:100C500020736174656C6C6974005370656B747299
:100C6000756D20736174656C6C697420284C6F77A6
:100C7000207265736F6C7574696F6E2900537065AF
:100C80006B7472756D20736174656C6C6974202867
:100C90003230343829005370656B7472756D20736F
:100CA0006174656C6C6974004D756C746973696707
:100CB0006E616C2050504D000A0D52656365697677
:100CC00065723A2000756E6B6E6F776E2E205573CD
:100CD000696E672050504D2E2E2E006E6F7420735B
:100CE0007570706F727465642062792068617264D7
:100CF0007761726521000A0D3D3D3D3D3D3D3D3D25
:100D00003D3D3D3D3D3D3D3D3D3D3D3D3D3D3D3D13
:100D10003D3D3D3D3D3D3D3D3D3D3D000A0D466C6B
:100D200069676874436F6E74726F6C0A0D48617204
:100D300064776172653A25642E25640A0D536F66E7
:100D400074776172653A5625642E25642563200008
:100D50000A0D3D3D3D3D3D3D3D3D3D3D3D3D3D3D26
:100D60003D3D3D3D3D3D3D3D3D3D3D3D3D3D3D3DB3
:100D70003D3D3D3D3D0011241FBECFEFD0E1DEBF24
:100D8000CDBF11E0A0E0B1E0E8EEF4EF02C00590C5
:100D90000D92A83FB107D9F718E0A8EFB1E001C064
:100DA0001D92A83DB107E1F76AEAE2E0F0E081E2D6
:100DB000809357007491AE014F5F5F4F20EF37EF84
:100DC000DA019FE0F9012F5F3F4F84918D9391509D
:100DD00097FFF8CF773911F40000FECFFA019EE0BB
:100DE000819168276095915097FFFACF888968179D
:100DF00021F0773911F40000FECF0E94C2070C9455
:100E0000737A0C94000080912F06E82FFF27EE0FD5
:100E1000FF1FE75AF84F808191818D5E9F4F14F03C
:100E200010920301808191818A5B9F4FCCF4809165
:100E300003018823A9F481E0809303018091720467
:100E40008F5F80937204853038F088EE93E0909342
:100E50002C0280932B0204C066E970E00E94A53743
:100E6000809172049927909300068093FF0508955E
:100E70001F93CF93DF93182F882389F082EF90E0A0
:100E80009F938F938DEF92E19F938F93E0913E0418
:100E9000F0913F0409950F900F900F900F90809163
:100EA0005206823308F044C084EF91E00E94231779
:100EB000EC01112329F0CE010E942C178823D9F3CD
:100EC000C2E0D0E026E530E080911E0190911F0144
:100ED0008217930730F02196255D3F4FC730D1052B
:100EE00098F3809152069927C89F9001C99F300DB1
:100EF000D89F300D1124209300011123D9F068EC04
:100F000070E08C2F0E94A537DF93CF938AEF90E09B
:100F10009F938F938DEF92E19F938F93E0913E0487
:100F2000F0913F0409958DB79EB706968DBF02C01C
:100F300080930001112311F1809100016AE00E9469
:100F4000C679892F99279F938F93809100010E94E2
:100F5000C67999279F938F9385E091E09F938F9314
:100F60008DEF92E19F938F93E0913E04F0913F04C7
:100F700009952DB73EB7285F3F4F2DBFDF91CF9129
:100F80001F910895CFEFD0E1DEBFCDBF8824992413
:100F900014B815B807EE13E00253104017FFFCCF4A
:100FA000189B06C0199B02C08DE007C08BE005C0EE
:100FB000199B02C084E101C08AE08093020181E8AC
:100FC00087B93E9A8FEF88B98BE184B981E085B902
:100FD0008EE38AB987E48BB9469A84B7877F84BF4A
:100FE000809160008861809360001092600084ECC2
:100FF00099E090932C0280932B0210922703109279
:10100000260310925E0710925D071092290310923A
:10101000280310922B0310922A03209102012431FD
:1010200028F084EC94E0A0E0B0E004C08BE095E010
:10103000A0E0B0E08093960190939701A09398016F
:10104000B09399012A3011F0243110F0289801C092
:10105000289A0E948C170E945D170E9405130E9417
:1010600003340E94D01A81E00E94662F0E941F6400
:101070000E94C46E0E945A76809102018C3010F456
:10108000299A01C0299878940E94802E8091730239
:10109000826080937302109276020E94D04284EFA5
:1010A00091E00E9423178C018091730280FD05C09E
:1010B000C8010E942C178823B9F38FE191E09F9318
:1010C0008F93BDEFAB2EB2E1BB2EBF92AF92E091FA
:1010D0003E04F0913F04099580EA9FE00E942317A7
:1010E0008C01C0E0D0E00F900F900F900F90ABEF0D
:1010F000EA2EA6E0FA2EFFEACF2EF6E0DF2E0E94BF
:10110000D0428091730280FD05C0C8010E942C1757
:101110008823B9F3F60180811816ACF40BC00E9445
:10112000D0428091730280FD05C0C8010E942C1737
:101130008823B9F3C8010E942C17882321F4F701F2
:101140008081882364F7F701808187FF18C021968A
:10115000DF93CF93219781E391E09F938F93BF9289
:10116000AF92E0913E04F0913F0409958091F9011E
:101170008F5F8093F9018DB79EB706968DBF21963C
:10118000E4E0F0E0CE0EDF1E88E090E0E80EF91E0D
:10119000CC30D10508F4B3CFC0E0D0E008EF16E0C2
:1011A000EFEAEE2EE6E0FE2EF801838187FD1CC0FB
:1011B000F70180811816C4F42196DF93CF9321970D
:1011C00084E391E09F938F938DEF92E19F938F93B0
:1011D000E0913E04F0913F04099582E0809329025A
:1011E0008DB79EB706968DBFF80183818078838383
:1011F000219684E090E0E80EF91E085F1F4FCC3086
:10120000D10590F282E591E09F938F93CDEFD2E1EB
:10121000DF93CF93E0913E04F0913F0409959091C4
:101220002D068091F9010F900F900F900F90981755
:1012300028F48091580480618093580488E791E0F5
:101240009F938F93DF93CF93E0913E04F0913F04FF
:10125000099588EE93E00E9423178C010E94D61A0C
:101260000F900F900F900F90C8010E942C178823A9
:10127000D9F388E991E09F938F93DF93CF93E09127
:101280003E04F0913F04099580E00E946738809108
:1012900002010F900F900F900F908A3011F084315F
:1012A00010F0289801C0289A80ED97E090932C02C6
:1012B00080932B0285E5809374048EE090E00E9479
:1012C000B52C9927182F00278FE090E00E94B52CAD
:1012D000080F111D1093FF010093FE018AE090E0BA
:1012E0000E94B52C9927182F00278BE090E00E94D0
:1012F000B52C080F111D1093FD010093FC010F5F29
:101300001F4F39F08091FE019091FF018F5F9F4F39
:1013100041F41092FF011092FE011092FD01109213
:10132000FC018091FC019091FD019F938F9380912E
:10133000FE019091FF019F938F938DE991E09F9320
:101340008F93DF93CF93E0913E04F0913F04099592
:101350008DB79EB708968DBF80EC91E09F938F93D9
:10136000DF93CF93E0913E04F0913F040995809183
:101370003B060F900F900F900F90E0913E04F0917C
:101380003F0482FF07C08CEC91E09F938F93DF9323
:10139000CF9308C088ED91E09F938F938DEF92E1FA
:1013A0009F938F9309950F900F900F900F900E942D
:1013B000F41F88E893E1909393018093920181E078
:1013C000809373040E943807809155060E94C0756F
:1013D0008AEE91E09F938F93DF93CF93E0913E0449
:1013E000F0913F04099580ED97E00E9423178C014E
:1013F0008AEF90E00E942317EC0183E08093D705E9
:101400001092F8010F900F900F900F9080910102B1
:101410008111FFCFCE010E942C17882339F084E67A
:1014200090E00E942317EC010E94167780912F0212
:10143000882309F4D5C180911001882309F4D0C113
:1014400010922F0280917204882319F00E940307E2
:1014500002C00E94D1450E94D042209102012A3050
:1014600011F0243110F0289801C0289A80912C03A3
:1014700090915804882339F080912C0381508093F7
:101480002C03977F0AC080916F00806280936F0069
:1014900010925A07109259079860909358048091BF
:1014A00092019091930101979093930180939201FF
:1014B0008091920190919301892B21F08091740287
:1014C0008823C9F18091920190919301892BD9F4DD
:1014D0000E94902F85E090E0909393018093920179
:1014E00080911106909112060196909312068093B6
:1014F0001106809158048160809358048091D8052A
:1015000082608093D80580910801909109018F5FD6
:101510009F4F19F5809123038823F9F080E197E22A
:1015200090932C0280932B0280E890E09093090125
:101530008093080112C02A3011F0243110F028984D
:1015400001C0289A80912B0290912C02892B29F4BA
:10155000809158048E7F8093580480912F028823B5
:1015600009F03EC180910E01882311F00E94A3175B
:101570000E9448130E947E0EC8010E942C178823E7
:1015800009F42AC10C5E1F4F809174029091580497
:10159000882339F09260909358048091D805826036
:1015A0000CC09D7F9093580480919201909193017B
:1015B000079728F08091D8058D7F8093D80580917A
:1015C000920190919301079728F0809158048E7FA3
:1015D0008093580480910501882321F081508093E5
:1015E000050125C080937E041092FD021092FC023A
:1015F0001092FB021092FA021092F9021092F80275
:1016000080910801909109018F5F9F4F81F4809133
:101610002C03882361F488E99AE390932C02809349
:101620002B0280E09CE09093090180930801809157
:10163000EE01893C48F081508093EE01809158047E
:101640008B7F8093580430C0809137088823E1F065
:10165000809158048460809358048091080190918F
:1016600009018F5F9F4F81F480912303882361F0EC
:1016700088E99AE390932C0280932B0280E098EA09
:1016800090930901809308011092080410920704B6
:1016900010920604109205048FEF9FEF9093670855
:1016A000809366081092EE0180910001282F332765
:1016B00080911E0190911F0182179307CCF48091B5
:1016C000F10280628093F1028091080190910901FA
:1016D0008F5F9F4FC1F480E797E190932C02809336
:1016E0002B0280E093E090930901809308010BC0E6
:1016F00080912B0290912C02892B29F48091F10288
:101700008F7D8093F1020E94A56884E080932A0275
:1017100080912303882329F45AEA852E55E0952EDB
:1017200012C0809100028F5F80930002813359F4D0
:10173000109200028091FA019091FB010196909322
:10174000FB018093FA010894811C911CF2E78F162B
:10175000FBE09F0609F040C0882499242091FE01F7
:101760003091FF012F5F3F4F3093FF012093FE0127
:101770008091FC019091FD0101969093FD01809371
:10178000FC01832F9927682F8EE090E00E94BD2CEA
:101790008091FE019091FF019070682F8FE090E0A2
:1017A0000E94BD2C8091FC019091FD01892F992709
:1017B000682F8AE090E00E94BD2C8091FC019091FE
:1017C000FD019070682F8BE090E00E94BD2C84E1B9
:1017D00090E00E9423178C010E94F5680E94DB6E46
:1017E00080912A02882309F011CE0E9440640ECE17
:1017F0001F920F920FB60F9211248F939F93EF9326
:10180000FF93809107018823E1F480911B0290915E
:101810001C02019690931C0280931B02FC01E35D65
:10182000FA4FE081ED3019F08A3A910539F41092BF
:101830001C0210921B0281E080930701E093C60016
:1018400004C010921C0210921B02FF91EF919F9115
:101850008F910F900FBE0F901F9018951F920F92AF
:101860000FB60F9211242F933F934F935F936F9373
:101870007F938F939F93AF93BF93CF93EF93FF93F8
:1018800090E080910102813029F48091C60080931C
:10189000CE00CCC080910102823029F48091C60034
:1018A00080938104C3C08091C6008093130250913D
:1018B00021025A3A10F090932202809113028D3047
:1018C00009F065C080912202823009F060C09093D7
:1018D0002202852F99278F579B4FFC013297408119
:1018E00020911D0230911E02241B3109DC01119749
:1018F0008C91281B3109C9019F7090931E0280931F
:101900001D0246E0969587954A95E1F7982F935CDE
:1019100090931F022F733070235C209320028081EC
:10192000981729F48C91281711F491E006C090E0E3
:10193000809110028F5F80931002C0911202CC231D
:1019400009F074C0992309F471C081E080931202F8
:10195000580F50930F025150E52FFF27EF57FB4FC1
:101960008DE0808380918304823509F05FC00E94FE
:10197000F41F88E190E02CE00FB6F894A8958093CE
:1019800060000FBE20936000C09329024FC02091D9
:101990002202822F992781309105F9F0823091053A
:1019A0001CF4892B21F040C0029711F13DC08091B9
:1019B0001302833239F480911202882319F481E0F2
:1019C00080932202809113028093810481E08093AE
:1019D000210280911302992722C02F5F20932202B7
:1019E000E52FFF27EF57FB4F80911302808309C03B
:1019F000E52FFF27EF57FB4F8091130280835A3A60
:101A000020F45F5F5093210202C0109222022091C5
:101A1000130280911D0290911E02820F911D9093DE
:101A20001E0280931D0202C010922202FF91EF91CC
:101A3000CF91BF91AF919F918F917F916F915F9166
:101A40004F913F912F910F900FBE0F901F901895BF
:101A5000AC01A0E0B0E09D01A817B90748F4EDE2A1
:101A6000F5E08191280F311D1196A417B507C8F331
:101A70003F70FD01E35DFA4FC90156E096958795E9
:101A80005A95E1F7835C80831196FD01E35DFA4F7F
:101A90002F733070822F835C8083A25DBA4F8DE0FC
:101AA0008C931092070180912D058093C6000895B4
:101AB000A0E0B0E0EEE5FDE00C943F7A2C859D853A
:101AC0000E85BB2483E280932D059F5990932E05AC
:101AD00020932F0533E0E32EF12C002309F49EC060
:101AE000CF84D888BE016D5E7F4FA989BA89015025
:101AF000109709F493C01097B9F0F601EB0DF11DA2
:101B0000B3949081119791F4002349F1FB016E5F2A
:101B10007F4FDB01C080D1806E5F7F4F0D90BC9105
:101B2000A02DBB24015002C090E019C01097B9F05D
:101B3000F601EB0DF11DB3944081119791F4002350
:101B400041F1FB016E5F7F4FDB01C080D1806E5F92
:101B50007F4F0D90BC91A02DBB24015002C040E0EE
:101B600018C01097B1F0F601EB0DF11DB394108180
:101B7000119781F4002371F0FB013296DB01CD90C7
:101B8000DC90BF016E5F7F4FA081B181BB2401500B
:101B900001C010E0F701E35DFA4F892F8695869525
:101BA000835C80830894E11CF11CF701E35DFA4F2C
:101BB000892F99278370907024E0880F991F2A95A8
:101BC000E1F755279A0194E0369527959A95E1F724
:101BD000822B835C80830894E11CF11CF701E35D98
:101BE000FA4F4F705070440F551F440F551F812FEF
:101BF000992726E0969587952A95E1F7842B835CB3
:101C000080830894E11CF11CF701E35DFA4F1F7318
:101C1000135C10830894E11CF11C6ACFC7010E9479
:101C2000280DE9E00C945B7AA3E07A2F40910F0233
:101C30004650442309F458C0E72FFF27EF57FB4FC6
:101C400080818D537F5FE72FFF27EF57FB4F208168
:101C50002D537F5FE72FFF27EF57FB4F30813D5319
:101C60007F5FE72FFF27EF57FB4F60816D537F5F4B
:101C70009927880F991F880F991F522F52955F70CF
:101C8000582B822F99278F709070F4E0880F991F3E
:101C9000FA95E1F7232F26952695282B832F992750
:101CA00083709070E6E0880F991FEA95E1F7682B42
:101CB00041504F3FC9F0EA2FFF27EF57FB4F5083AA
:101CC000AF5F41504F3F81F0EA2FFF27EF57FB4FA7
:101CD0002083AF5F41504F3F39F0EA2FFF27EF5786
:101CE000FB4F6083AF5FA5CF84E894E090930E0232
:101CF00080930D02A350A0930C020895A2E0B0E0DF
:101D0000E4E8FEE00C94457A80911202882309F4FD
:101D100070C40E94140E80918204823609F02AC396
:101D20008091830499278037910509F4C1C08137D8
:101D30009105C4F48A36910509F492C28B36910557
:101D400044F48B34910571F18636910509F471C123
:101D500011C38D36910509F47BC08E36910509F4C7
:101D60005FC008C384379105D1F1853791054CF4E4
:101D70008137910509F4A3C08337910509F4F1C0B7
:101D8000F9C28737910509F42DC2883791052CF4E3
:101D90008537910509F4E9C1EDC28937910509F448
:101DA0007FC1E8C2E0910D02F0910E028081918125
:101DB0009093DF018093DE0120913C0330913D033D
:101DC000821B930B845E9D4F68E671E00E94E6796A
:101DD000845B904090933B0380933A03CBC2809105
:101DE0000F02A0910D02B0910E02853140F080E10A
:101DF000ECE5F4E00D9001928A95E1F70DC08D912C
:101E00009D910D90BC91A02D80935C0490935D04F6
:101E1000A0935E04B0935F0480EF80930A024BC0EE
:101E2000809107018823E1F38DE490E09F938F93E5
:101E300082EA96E09F938F9381E08F938F938EE455
:101E40008F930E94580D8DB79EB707968DBF92C293
:101E5000A0910D02B0910E021C91113081F48DE41D
:101E6000E2EAF6E00D9001928A95E1F70E94BD2D1D
:101E70001983809158048F7E8093580401C0198281
:101E8000809107018823E1F381E090E09F938F9395
:101E9000CE0101969F938F9381E08F938F938DE472
:101EA0008F930E94580DADB7BEB71796ADBF62C2F3
:101EB00081E0809315028FEF809305015BC2E09172
:101EC0000D02F0910E02E0818E2F8A508A3058F474
:101ED0008983882311F481E003C0863010F085E007
:101EE000898361E00EC08E2F84518A3070F489831B
:101EF000882311F481E003C0863010F085E08983E7
:101F000060E089810E943D2E12C0E983EF3F19F401
:101F10000E94202E89838981882311F481E003C0E7
:101F2000863010F085E0898389810E94D32C8091CE
:101F300007018823E1F383E790E09F938F938EE27C
:101F400096E09F938F9381E090E09F938F93CE01D3
:101F500001969F938F9382E08F9381E08F9381E529
:101F600077C120910D0230910E02D9018C918150E0
:101F7000853008F045C0F9018181853509F040C000
:101F8000809123038823E1F52F5F3F4F83E7EEE243
:101F9000F6E0D9010D9001928A95E1F7F90182915D
:101FA0000E943C2D80916F069927AA27BB27BC0170
:101FB000CD0124EC39E040E050E00E94A779DC013B
:101FC000CB018093D6019093D701A093D801B09311
:101FD000D901809170069927AA27BB27BC01CD01A2
:101FE0000E94A779DC01CB018093D2019093D301A9
:101FF000A093D401B093D5010E94202E898301C003
:102000001982809107018823E1F381E090E09F939A
:102010008F93CE0101969F938F9381E08F938F933F
:1020200083E58F930E94580D8DB79EB707968DBF9D
:1020300026C0E0910D02F0910E02E0818E2F8150BA
:10204000853018F48E2F0E94D32C0E94202E898375
:10205000809107018823E1F381E090E09F938F93C3
:10206000CE0101969F938F9381E08F938F9386E4A7
:102070008F930E94580DADB7BEB71796ADBF809134
:102080002303882329F46EE670E089810E94A53736
:1020900080E00E943807809155060E94C0756AC191
:1020A000E0910D02F0910E028081992787FD9095B5
:1020B00090937407809373078181992787FD90958A
:1020C00090937607809375078281992787FD909575
:1020D00090937807809377078381992787FD909560
:1020E00090937A07809379078481992787FD90954B
:1020F00090937C0780937B078581992787FD909536
:1021000090937E0780937D078681992787FD909520
:102110009093800780937F078781992787FD90950B
:1021200090938207809381078085992787FD9095FA
:1021300090938407809383078185992787FD9095E5
:1021400090938607809385078285992787FD9095D0
:1021500090938807809387078385992787FD9095BB
:1021600090938A078093890705C1E0910D02F09151
:102170000E0280810E945C338A83882319F481E0F7
:10218000898301C01982809107018823E1F388E0E7
:1021900090E09F938F9380EF96E09F938F9321E041
:1021A00030E03F932F9380910D0290910E029F9308
:1021B0008F933F932F93CE0102969F938F933F93DC
:1021C0002F93CE01820F931F9F938F9384E08F9361
:1021D00081E08F9385E58F930E94580DEDB7FEB790
:1021E00073963CC080910C02893008F4C3C02091E2
:1021F0000D0230910E022F5F3F4F88E0A0EFB6E056
:10220000F90101900D928A95E1F7D9018E910E9412
:10221000B2328A83882319F481E0898301C019824C
:10222000809107018823E1F321E030E03F932F9371
:10223000CE0102969F938F933F932F93CE01820FEF
:10224000931F9F938F9382E08F9381E08F9387E515
:102250008F930E94580DEDB7FEB73B96EDBF8AC035
:102260000E9473758983823019F0843009F082C02E
:10227000F8948091C1008F738093C1008091C90050
:102280008F738093C9008091C100877E8093C100C5
:102290008091C900877E8093C9008091C80087FF24
:1022A00003C08091CE00F9CF8091C00087FF03C0AA
:1022B0008091C600F9CFE0910D02F0910E0280816D
:1022C000882359F581E0809301021092CD0080E4CB
:1022D00090E08093CC008091CD008093C5008091E8
:1022E000CC008093C4008091CA008F7D8093CA0087
:1022F0008091CA008F7E8093CA008091C9008B7F35
:102300008093C9008091CA0084608093CA00809144
:10231000CA0082608093CA0003C082E080930102F9
:102320008091CA00877F8093CA008091C200877F16
:102330008093C2008091C9008E7F8093C9008091F4
:10234000C10088618093C1008091C9008861809339
:10235000C9008091C10080688093C1008091C9004C
:1023600080688093C90010926E0010926F001092E6
:10237000700078948091830499278436910509F43C
:10238000CDC085369105ACF48136910509F481C044
:10239000823691052CF48B34910509F45DC021C17E
:1023A0008236910509F482C08336910509F491C003
:1023B00018C18C36910509F4FFC08D3691054CF497
:1023C0008736910509F40AC18836910509F4C4C01D
:1023D00008C18437910529F08637910509F4FAC0C0
:1023E00000C180910F02A0910D02B0910E028031C8
:1023F00040F080E1ECE5F4E00D9001928A95E1F780
:102400000DC08D919D910D90BC91A02D80935C0489
:1024100090935D04A0935E04B0935F0480910701E4
:102420008823E1F31F92809104018F9384E58F93B9
:102430000E94580D8AEF80930A028FEF8093050166
:1024400080EA9FE00E942317909303028093020288
:102450000F900F900F90C5C0E0910D02F0910E0209
:10246000808191819093DF018093DE0120913C0374
:1024700030913D03821B930B845E9D4F68E671E0B3
:102480000E94E679845B904090933B0380933A03EB
:10249000A8C0E0910D02F0910E02808180930601A8
:1024A000803298F08FE1809306010FC0A0910D0259
:1024B000B0910E028BE0E4E7F4E00D9001928A9572
:1024C000E1F780917D04809319068FEF80930501D9
:1024D00088C08091060290910702892B89F4E091CF
:1024E0000D02F0910E02E081EE2351F08AE0E89FA8
:1024F000C00111240E94231790934F0480934E042F
:10250000E0910D02F0910E0290818AE0989FC00147
:102510001124909307028093060215C08FEF8093D9
:102520000501E0910D02F0910E0290818AE0989FE2
:10253000C00111249093090280930802892B19F09D
:1025400081E08093170280EA9FE00E942317909316
:1025500003028093020245C08FEF80930501E09152
:102560000D02F0910E02908197FD08C082E08093E9
:10257000140210920502109204021AC090958091E4
:102580006C02892B80936C0291818AE0989FC00134
:102590001124909305028093040284E08093140236
:1025A00080EA9FE00E942317909303028093020227
:1025B00081E08093180215C08FEF80930501E091B0
:1025C0000D02F0910E02808180936D0281E0809374
:1025D000190207C081E08093160203C081E0809356
:1025E0001A021092120210920E0210920D02109214
:1025F0000C02E3E0CE5F0C94617A982F8091C000CA
:1026000085FFFCCF9093C60008950F931F9388E138
:102610008093C1008091C00082608093C00080914F
:10262000C10080688093C1008091C1008064809364
:10263000C10000E010E00093C5008AE290E08093C2
:10264000C40080910802909109020E942317909380
:102650005104809350048CED90E00E9423179093D6
:10266000800480937F041092520484E58093530485
:10267000109256048BE080935404109255041093EA
:102680000E0200930D0210920C021F910F910895FB
:10269000A0E1B0E0EEE4F3E10C94427A809107010E
:1026A000882309F4C1C280910202909103020E9422
:1026B0002C17882361F010920502109204021092E8
:1026C00009021092080210920702109206028091ED
:1026D000040290910502892B41F080912B05909185
:1026E0002C050E942C17882329F480911802882336
:1026F00009F460C080910701882309F45BC08091D0
:10270000140201E211E08430A8F00E94082080E564
:1027100090E09F938F931F930F9381E08F938F93FC
:1027200088E48F930E94580D2DB73EB7295F3F4F25
:102730002DBF34C010926E0282E194E09F938F937C
:102740008DEF9FE19F938F93E0913E04F0913F04C2
:10275000099584E190E09F938F931F930F9381E0FD
:1027600090E09F938F9384E192E09F938F9382E018
:102770008F9381E08F9388E48F930E94580D80910E
:102780001402982F8F5F809314022DB73EB7215FFC
:102790003F4F2DBF943010F010921402809104022C
:1027A000909105020E94231790932C0580932B058E
:1027B0001092180280911902882351F1809107012B
:1027C000882331F10E94082080E590E09F938F9349
:1027D00081E291E09F938F9321E030E03F932F932C
:1027E00080E291E09F938F933F932F938DE692E049
:1027F0009F938F9383E08F9381E08F938CE48F93EB
:102800000E94580D109219028DB79EB70F968DBF7A
:10281000809116028823D1F0809107018823B1F0BE
:102820008AE090E09F938F9382E594E09F938F934B
:1028300081E08F938F9386E58F930E94580D1092BD
:1028400016022DB73EB7295F3F4F2DBF80911A0268
:102850008823D9F0809107018823B9F08BE090E0BC
:102860009F938F9384E794E09F938F9381E08F935E
:10287000809104018F9387E48F930E94580D1092EA
:102880001A028DB79EB707968DBF80917F049091F5
:1028900080040E942C17882309F461C080910701ED
:1028A000882309F45CC080914A069927880F991FF4
:1028B000880F991F7C010027F7FC0095102F80914D
:1028C0007E0390917F03A0918003B0918103BC01AE
:1028D000CD01A80197010E941B7A30936D042093CB
:1028E0006C048091760390917703A0917803B09166
:1028F0007903BC01CD01A80197010E941B7A309396
:102900006F0420936E04809106038093700480917D
:1029100005038093710488E090E09F938F938CE689
:1029200094E09F938F9381E08F9383E08F938BE666
:102930008F930E94580D809172042DB73EB7295F86
:102940003F4F2DBF853018F086E08093720483E6F8
:1029500090E00E9423179093800480937F048091DD
:10296000080290910902892B41F0809150049091C6
:1029700051040E942C17882321F480911702882388
:1029800039F180910701882319F10E947F3682E492
:1029900090E09F938F9387ED95E09F938F9381E0D5
:1029A0008F938F9384E48F930E94580D1092170297
:1029B0008DB79EB707968DBF80910802909109024E
:1029C000009731F00E942317909351048093500494
:1029D0008091060290910702892B09F4B8C080917A
:1029E0004E0490914F040E942C17882309F4AFC025
:1029F00080910701882309F4AAC080914A0699278B
:102A0000880F991F880F991F7C010027F7FC0095FC
:102A1000102F80917E0390917F03A0918003B0914D
:102A20008103BC01CD01A80197010E941B7A30935C
:102A30004104209340048091760390917703A09104
:102A40007803B0917903BC01CD01A80197010E94E0
:102A50001B7A309343042093420420911F08309145
:102A600020084091210850912208DA01C90163E051
:102A7000880F991FAA1FBB1F6A95D1F7820F931F5A
:102A8000A41FB51F820F931FA41FB51F209196018D
:102A9000309197014091980150919901BC01CD016D
:102AA0000E941B7A3093450420934404809146038E
:102AB00090914703A0914803B091490339E0B5953F
:102AC000A795979587953A95D1F78093460480917D
:102AD000420390914303A0914403B091450329E040
:102AE000B595A795979587952A95D1F78093470433
:102AF00080914E0390914F03A0915003B0915103E8
:102B000009E0B595A795979587950A95D1F7809394
:102B100048048EE090E09F938F9380E494E09F932D
:102B20008F9381E08F938F9383E48F930E94580D4E
:102B300080910602909107020E94231790934F0400
:102B400080934E042DB73EB7295F3F4F2DBF809134
:102B500006018F3F71F1992714E0880F991F1A958C
:102B6000E1F78E5E9D4F40E150E0BC01CE01019641
:102B70000E94FA7780E190E09F938F93CE010196B7
:102B80009F938F9381E090E09F938F9386E091E0F5
:102B90009F938F9382E08F9381E08F9381E48F9353
:102BA0000E94580D8FEF809306018DB79EB70B964C
:102BB0008DBF809119068823D1F080910701882369
:102BC000B1F081E090E09F938F9389E196E09F932D
:102BD0008F9381E08F938F9382E48F930E94580D9F
:102BE000109219062DB73EB7295F3F4F2DBF809138
:102BF00015028823C9F0809107018823A9F084E396
:102C000090E09F938F9389E597E09F938F9381E066
:102C10008F938F9380E58F930E94580D1092150229
:102C20008DB79EB707968DBFE6E0C05F0C945E7AC5
:102C30001F920F920FB60F9211242F933F935F9321
:102C40006F937F938F939F93AF93BF93EF93FF9374
:102C500020E080912A02882329F080912A02815065
:102C600080932A0280912104882319F08150809357
:102C70002104809132028150809332028F3F09F00B
:102C80005BC089E0809332028091300290913102E2
:102C90000196909331028093300280910F018F5FF3
:102CA000817080930F01882319F481E080932F02B3
:102CB000349903C081E08093330280912B0290917C
:102CC0002C02892B21F180912B0290912C020B97E1
:102CD00050F080912B0290912C020A9790932C0235
:102CE00080932B0204C010922C0210922B02809130
:102CF0002B0290912C02209108013091090182232E
:102D00009323892B11F021E008C020E006C08FEF4B
:102D10009FEF909309018093080180910201222383
:102D200031F08A3011F45A9A07C0479A05C08A30A8
:102D300011F45A9801C0479880913302882309F40E
:102D400072C02091EE01222309F06DC080913B06F4
:102D500083FF69C086B19927FC01E071F07084FFA0
:102D600014C080912D0290912E02019690932E0214
:102D700080932D0280912D0290912E02895E9340C6
:102D800008F451C0209333024EC080912D029091DF
:102D90002E02892B09F443C080912D0290912E02BE
:102DA0008A569140E0F580912D0290912E0269E2C1
:102DB00070E00E94D27980912D0290912E02860FB0
:102DC000971F90932E0280932D0280912D02909157
:102DD0002E020B9750F080912D0290912E020A97AF
:102DE0009093DF018093DE0104C0F093DF01E09354
:102DF000DE018091DE019091DF0120913C03309152
:102E00003D03821B930B845E9D4F68E671E00E9438
:102E1000E679845B904090933B0380933A03109251
:102E20002E0210922D02FF91EF91BF91AF919F91D1
:102E30008F917F916F915F913F912F910F900FBE76
:102E40000F901F9018952091300230913102280F79
:102E5000391FC90101960895209130023091310245
:102E6000821B930B892F9927869580749070089503
:102E7000CF93DF930E942317EC01CE010E942C1701
:102E80008823D9F3DF91CF910895CF93DF930E94E8
:102E90002317EC0109C080911001882329F0909339
:102EA00010018FEC80937A00CE010E942C17982F8E
:102EB000882389F3DF91CF9108959FB7F8945F98A5
:102EC0003E9A469A8091B0008F708093B0008091B6
:102ED000B00083608093B0008091B1008B738093C9
:102EE000B1008091B1008B608093B1001092B2006C
:102EF0008FEF8093B3008091B00080688093B00022
:102F0000809170008A7F8093700080917000826051
:102F1000809370009FBF08958AE090E00E9423177D
:102F2000909339028093380282E085BD83EA84BDA4
:102F300017BC84EB88BD86E086BD80916E00816001
:102F400080936E000895A0E0B0E0E9EAF7E10C9408
:102F5000417A80916506E82FFF27E456FE4F96815F
:102F6000D08080910E01A92FBB27A7FDB095CB2F54
:102F7000DB2F813009F0DDC020917E0330917F038B
:102F80004091800350918103BD01CE010E94A77939
:102F900097FF04C061587F4F8F4F9F4F7B018C017B
:102FA000F7E015950795F794E794FA95D1F78D2DED
:102FB000992787FD9095A92FB92F209176033091FD
:102FC00077034091780350917903BC01CD010E94B1
:102FD000A77997FF04C061587F4F8F4F9F4FE7E05D
:102FE0009595879577956795EA95D1F7F801E7016B
:102FF000C61BD70BE80BF90B20910F04309110047E
:10300000C90153E0880F991F5A95E1F7821B930B72
:10301000AA2797FDA095BA2FC81BD90BEA0BFB0B6B
:1030200080915C069927AA27BB27BC01CD019E0190
:10303000AF010E94A77997FF04C061507E4F8F4F68
:103040009F4FFC01EB0149E0F595E795D795C795B2
:103050004A95D1F78091C101992736E0880F991FD1
:103060003A95E1F740910C0150910D0120916406D1
:103070003327841B950BB9010E94E67980910C01DE
:1030800090910D01860F971F90930D0180930C0175
:1030900080910C0190910D0197FD0F9624E095957C
:1030A00087952A95E1F790932602809325028091D7
:1030B000930680FF07C080912502909126028C0F15
:1030C0009D1F06C080912502909126028C1B9D0BAE
:1030D000909326028093250280915D06282F332746
:1030E000220F331F220F331F809125029091260259
:1030F000821793077CF080915E06282F3327220FDA
:10310000331F220F331F809125029091260228172A
:10311000390724F43093260220932502809102017E
:10312000843108F4C2C080910E018F5F80930E013C
:10313000BEC020917603309177034091780350917F
:103140007903BD01CE010E94A77997FF04C06158A1
:103150007F4F8F4F9F4F7B018C01C7E015950795DF
:10316000F794E794CA95D1F78D2D992787FD90950F
:10317000A92FB92F20917E0330917F0340918003C6
:1031800050918103BC01CD010E94A7799B01AC0144
:1031900097FF04C021583F4F4F4F5F4FB7E0559501
:1031A000479537952795BA95D1F72E0D3F1D401FAE
:1031B000511F809160069927AA27BB27BC01CD012A
:1031C0000E94A77997FF04C061507E4F8F4F9F4F99
:1031D000FC01EB01A9E0F595E795D795C795AA9570
:1031E000D1F78091C001992776E0880F991F7A95D1
:1031F000E1F740910A0150910B01209164063327B9
:10320000841B950BB9010E94E67980910A01909187
:103210000B01860F971F90930B0180930A018091F9
:103220000A0190910B0197FD0F9664E095958795A3
:103230006A95E1F79093240280932302809193068C
:1032400081FF07C080912302909124028C0F9D1F63
:1032500006C080912302909124028C1B9D0B9093B9
:1032600024028093230280916106282F3327220FA6
:10327000331F220F331F8091230290912402821763
:1032800093077CF080916206282F3327220F331F8B
:10329000220F331F809123029091240228173907AF
:1032A00024F4309324022093230210920E01E7E0CD
:1032B000CDB7DEB70C945D7A1F920F920FB60F92C6
:1032C00011242F933F934F935F938F939F93EF938B
:1032D000FF938091020190913402843108F04CC038
:1032E000992309F01CC18091B00086FF24C0809111
:1032F000B0008F7B8093B0008091250290912602D0
:1033000087559E4F909328028093270225E08D3D9C
:10331000920718F08CED95E005C08757914030F486
:1033200087E791E0909328028093270280912702FB
:1033300090912802BAC08091B00080648093B00060
:1033400080916306282F33278DED96E0289FA001FA
:10335000299F500D389F500D1124CA01209135022C
:1033600030913602821B930B9093280280932702A0
:1033700081E080930E01D0C0992309F0D0C08091E4
:10338000B00086FF97C08091B0008F7B8093B00023
:10339000E0913702EE23F1F480916306282F332762
:1033A0008DED96E0289FA001299F500D389F500D6C
:1033B0001124CA012091350230913602821B930BF1
:1033C00090932802809327021092360210923502C1
:1033D000469AA2C089EA93E090932802809327023C
:1033E0008E2F992783309105D9F08430910534F4DC
:1033F0008130910549F0029761F020C08430910539
:1034000091F0059799F01AC08091250290912602BB
:1034100004C0809123029091240287559E4F1DC0C5
:103420008091ED0705C08091C70702C08091F50724
:103430009927880F991F880F991FEFCFFF27EE0F4D
:10344000FF1FE75AF84F20813181220F331F8091EF
:10345000270290912802820F931F90932802809355
:103460002702809127029091280255E08D3D950713
:1034700018F08CED95E005C08757914030F487E750
:1034800091E09093280280932702209127023091A7
:1034900028022C5B30403093280220932702809131
:1034A000350290913602820F931F909336028093DB
:1034B000350232C08091B00080648093B0008CEB04
:1034C00090E090932802809327028091350290919A
:1034D000360284549F4F9093360280933502809138
:1034E0002902882321F080912C03833320F48091DA
:1034F0002902823011F4469801C0469A8091370221
:103500008F5F8093370290916306981728F481E0CB
:1035100080930E011092370281E080933402209153
:1035200027023091280241E02F37340730F08FEF27
:103530008093B3002F5F30400FC02F3F3105C9F09B
:10354000C0F0A9014F5F50404F37510550F480E85B
:103550008093B300205830403093280220932702F4
:1035600012C08FEF8093B30050932802409327023C
:103570000AC0809127028093B30010922802109213
:10358000270210923402FF91EF919F918F915F91EA
:103590004F913F912F910F900FBE0F901F90189554
:1035A00010927C008FEC80937A000895CF93DF9384
:1035B00010923E0283E090E00E94B52CC82FDD27D8
:1035C000C531D10508F02A97C7BD84E690E00E9476
:1035D000451780911401909115018052934010F489
:1035E000C0E0D0E0CA3FD105F8F4C7BD82E390E067
:1035F0000E94451787E294E09F938F938DEF92E1AD
:103600009F938F93E0913E04F0913F040995809140
:103610001401909115010F900F900F900F90805210
:10362000934010F02196DECFC0932A066C2F83E0E2
:1036300090E00E94BD2C80913B0680FF0AC08091E3
:103640002A068A508B3E28F080915704806480932C
:103650005704C7BD8CE291E00E944517DF91CF91DE
:103660000895EF92FF921F93CF9310E080ED97E0C3
:103670000E9423177C01CCE8133019F4CB3008F0FA
:10368000C9E010E080914E0290914F028C5F934010
:1036900024F48091130181500AC080914E029091D0
:1036A0004F028750944034F0809113018F5F8093D4
:1036B000130101C011E080914C0290914D028C5F8A
:1036C000934024F48091120181500AC080914C02F1
:1036D00090914D028750944034F0809112018F5F99
:1036E0008093120101C01F5F80914A0290914B02AA
:1036F0008C5F934024F48091110181500AC0809125
:103700004A0290914B0287509440C4F0809111017D
:103710008F5F8093110113C089E294E09F938F9390
:103720008DEF92E19F938F93E0913E04F0913F04DF
:1037300009950F900F900F900F905FC01F5F82E16F
:1037400080937902809173028E7F8093730285EA61
:103750008093BC00809113018A3040F4809157041B
:103760008160809357048AE0809313018091130154
:10377000863F40F08091570481608093570485EF25
:1037800080931301809112018A3040F48091570494
:103790008260809357048AE0809312018091120125
:1037A000863F40F08091570482608093570485EFF4
:1037B00080931201809111018A3040F48091570466
:1037C0008460809357048AE08093110180911101F5
:1037D000863F40F08091570484608093570485EFC2
:1037E0008093110180917902882339F0C7010E94EA
:1037F0002C17882309F090CFF5CF109210018FEC91
:1038000080937A00809110018823E1F3CA3020F47C
:103810008AE090E00E944517C15009F02DCF86E460
:1038200090E00E944517CF911F91FF90EF9008956F
:103830001F920F920FB60F921124AF92BF92CF92A8
:10384000DF92EF92FF920F931F932F933F934F932B
:103850005F936F937F938F939F93AF93BF93EF93F8
:10386000FF9380915702282F3327442755278F5FD6
:1038700080935702F9012231310508F08CC3E25CD4
:10388000FF4F0C946D7A809178009091790046C03A
:1038900080917800909179002CC18091780090916E
:1038A000790090935A028093590257C180918703FF
:1038B000909188032091780030917900821B930BBE
:1038C00090931B0680931A0680911A0690911B060E
:1038D00090936402809363025EC18091780090911E
:1038E00079002091890330918A03821B930B909376
:1038F00029068093280680912806909129069093A6
:1039000066028093650249C380915D0290915E02D8
:103910002091780030917900820F931F90935E027E
:1039200080935D0281E03AC380915B0290915C02DA
:103930002091780030917900820F931F90935C0260
:1039400080935B0284E02AC380911E0190911F0145
:103950009C01220F331F280F391F8091780090910E
:10396000790063E070E00E94D279260F371F369508
:1039700027953695279530931F0120931E0185E0EA
:103980000DC380917800909179004091830350910C
:103990008403841B950B909345028093440280918D
:1039A000440290914502029704F122E04E3E5207F4
:1039B00084F4209158022B5F209358022550809167
:1039C000F2029091F302845F914018F4215F2093FA
:1039D000580280915802853684F14F5F5F4F5093B3
:1039E000840340938303845626C0809144029091BF
:1039F00045028F5F9F4F0CF532E047325307ECF0E2
:103A0000209158022550209358022B5F8091F2029A
:103A10009091F302845F914018F42F502093580244
:103A2000809158028C394CF441505040509384039B
:103A3000409383038C598093580281E08093430222
:103A400080917800909179009093210680932006D0
:103A500080914402909145029C01442737FD409596
:103A6000542F80913E0390913F03A0914003B09169
:103A70004103820F931FA41FB51F80933E039093B1
:103A80003F03A0934003B093410320913E03309144
:103A90003F03409140035091410357FF04C0215020
:103AA0003C4F4F4F5F4F0AE0559547953795279507
:103AB0000A95D1F780913E0390913F03A091400376
:103AC000B0914103821B930BA40BB50B80933E0373
:103AD00090933F03A0934003B09341032EC1809184
:103AE0005B0290915C022091780030917900820F06
:103AF000931F90935C0280935B021092560250C217
:103B0000809102018A3071F480917800909179005F
:103B10002091590230915A02820F931F0196969577
:103B2000879517C04091590250915A02843158F03C
:103B30002091780030917900240F351F8FEF97E0A6
:103B4000821B930B06C08091780090917900840FBE
:103B5000951F90934B0280934A0286E01FC280918A
:103B60008703909188032091780030917900821B1F
:103B7000930B90931B0680931A0680911A069091DE
:103B80001B062091630230916402820F931F909371
:103B900049028093480287E001C2809178009091A9
:103BA00079002091890330918A03821B930B9093B3
:103BB0002906809328068091280690912906209155
:103BC000650230916602820F931F909347028093A3
:103BD0004602E3C120915D0230915E02809178003F
:103BE00090917900280F391F30935E0220935D0277
:103BF000809102018A3019F4220F331F04C0220F72
:103C0000331F220F331F30935E0220935D022091F9
:103C10005D0230915E02C90137FD0796A3E09595DC
:103C20008795AA95E1F790934F0280934E02809179
:103C30005F0290916002820F931F97FD0196959508
:103C400087959093600280935F0220919303309157
:103C50009403821B930B90931D0180931C01209170
:103C600054023091550280911C0190911D01280F42
:103C7000391F37FF02C02F5F3F4F3595279530938F
:103C80005502209354024ECE20915B0230915C028B
:103C90008091780090917900280F391F30935C0251
:103CA00020935B02809102018A3019F4220F331FA6
:103CB00004C0220F331F220F331F30935C02209366
:103CC0005B0220915B0230915C02C90137FD0796CF
:103CD00063E0959587956A95E1F790934D028093FF
:103CE0004C028091610290916202820F931F97FDB6
:103CF0000196959587959093620280936102209139
:103D0000910330919203821B930B90931B0180933C
:103D10001A01209152023091530280911A01909120
:103D20001B01280F391F37FF02C02F5F3F4F35950A
:103D30002795309353022093520283E02FC11092B3
:103D4000570281E08093100180913A0290913B02EA
:103D5000019690933B0280933A0280917800909173
:103D60007900909315018093140180911401909132
:103D70001501AA27BB27A0906702B0906802C090E7
:103D80006902D0906A02A80EB91ECA1EDB1EA0925C
:103D90006702B0926802C0926902D0926A02809172
:103DA0006B028F5F80936B02823108F4F6C08091C2
:103DB000160190911701A0911801B09119017C0191
:103DC0008D0123E0EE0CFF1C001F111F2A95D1F777
:103DD000E81AF90A0A0B1B0BEA0CFB1C0C1D1D1D33
:103DE00080913E02992787FD9095A92FB92FBC019C
:103DF000CD0126EC34E240E050E00E94A779DC01DE
:103E0000CB01E81AF90A0A0B1B0BD801C70104966B
:103E1000A11DB11DB7FF05C0D801C7010B96A11D9B
:103E2000B11D13E0B595A795979587951A95D1F78C
:103E30008093160190931701A0931801B093190174
:103E400080912206909123067C010027F7FC0095C3
:103E5000102F8091160190911701A0911801B09137
:103E60001901E81AF90A0A0B1B0BE0921E03F092E3
:103E70001F03009320031093210320913F023091F0
:103E80004002409141025091420257FF04C0215F1D
:103E90003F4F4F4F5F4FF4E0559547953795279526
:103EA000FA95D1F780913F0290914002A091410292
:103EB000B0914202821B930BA40BB50B80933F027F
:103EC00090934002A0934102B093420280913F023E
:103ED00090914002A0914102B09142028E0D9F1D2F
:103EE000A01FB11F80933F0290934002A093410214
:103EF000B093420280913C0290913D02AC01E5E01A
:103F0000440F551FEA95E1F7481B590B80913F027A
:103F100090914002A0914102B0914202B7FF03C0CC
:103F20000F96A11DB11D74E0B595A795979587953E
:103F30007A95D1F720911E0330911F03281B390B6E
:103F400063E0220F331F6A95E1F7240F351F37FF17
:103F500002C0215E3F4F45E0359527954A95E1F730
:103F600030933D0220933C02D601C501D7FE03C029
:103F70000196A11DB11DB595A7959795879580933D
:103F8000670290936802A0936902B0936A0289E085
:103F900080936B0202C01092570282E08093560217
:103FA0008091560280937C0080915702882319F0FB
:103FB0008FEC80937A00FF91EF91BF91AF919F9129
:103FC0008F917F916F915F914F913F912F911F91B1
:103FD0000F91FF90EF90DF90CF90BF90AF900F9038
:103FE0000FBE0F901F90189590E2E1E2F1E08FE490
:103FF0009193815087FFFCCF089590916E02E1E28A
:10400000F1E0E90FF11D80839F5F90936E020895A8
:10401000EF92FF920F931F93CF93DF9320916C0247
:1040200020FF0AC080916D02882311F0815002C0E8
:104030008091200180936D0221FF0CC090916D0250
:1040400080912001981719F410926D0203C09F5FB0
:1040500090936D02822F992780FF04C081FF02C0D8
:1040600010926D020E94F41F80916D02282F332759
:104070005DEFE52E5FE1F52EC0913E04D0913F0447
:104080008A3098F481E180936E023F932F9380E60B
:1040900094E09F938F93FF92EF92FE0109952DB7C5
:1040A0003EB72A5F3F4F2DBF11C080E180936E0263
:1040B0003F932F9385E694E09F938F93FF92EF9227
:1040C000FE0109958DB79EB706968DBF20916D02B2
:1040D000822F9927AA27BB27FC01429710F00C9446
:1040E000B92AE05BFF4F4DEFE42E4FE1F42EC09173
:1040F0003E04D0913F040C946D7A10926E028AE6D1
:1041000094E09F938F930DEF1FE1FF92EF92FE01DA
:10411000099584E180936E020F900F900F900F909D
:1041200081E690E09F938F9384E590E09F938F9337
:104130001F921F92809102016AE00E94C679892F26
:1041400099279F938F93809102010E94C6799927A6
:104150009F938F938AE794E09F938F93FF92EF92C0
:10416000E0913E04F0913F04099588E280936E024D
:104170002DB73EB7225F3F4F2DBF83EA96E09F9356
:104180008F930E94202E99279F938F938FE894E01E
:104190009F938F93FF92EF92E0913E04F0913F0442
:1041A00009958DB79EB708968DBF909157049923B6
:1041B00051F08CE380936E02892F99279F938F9300
:1041C0008DE994E081C690917402992371F08CE39B
:1041D00080936E02892F99279F938F9384EB94E0AD
:1041E0009F938F931F930F9391C08091580484FFE6
:1041F00007C08CE380936E0289EC94E00C944B2A08
:104200008091920190919301069710F00C94C22A2C
:104210008CE380936E0286ED94E00C944B2A80919F
:104220003B063DEFE32E3FE1F32EC0913E04D091DB
:104230003F0480FF74C010926E0280911E03909123
:104240001F03A0912003B0912103BC01CD0125E003
:1042500030E040E050E00E941B7A3F932F9383EEC2
:1042600094E09F938F93FF92EF92FE01099584E172
:1042700080936E022DB73EB72A5F3F4F2DBF8091CE
:104280001A0390911B03A0911C03B0911D03BC0164
:10429000CD0125E030E040E050E00E941B7A3F93E2
:1042A0002F9380EF94E09F938F93FF92EF92E09192
:1042B0003E04F0913F04099588E280936E028DB729
:1042C0009EB706968DBF80911401909115019F9322
:1042D0008F938DEF94E09F938F93FF92EF92E091F5
:1042E0003E04F0913F0409958CE380936E022DB754
:1042F0003EB72A5F3F4F2DBF87B599279F938F9376
:104300008AE095E09F938F93FF92EF92E0913E04B5
:10431000F0913F0409958DB79EB7069633C710926A
:104320006E0287E195E09F938F93FF92EF92FE01DB
:10433000099584E180936E020F900F900F900F907B
:1043400086E295E09F938F93FF92EF92E0913E0477
:10435000F0913F04099588E280936E020F900F90D0
:104360000F900F908FE295E09F938F93FF92EF92C3
:10437000E0913E04F0913F0409958CE380936E0236
:104380000F900F900F900F908EE395E09F938F9377
:10439000FF92EF920C944F2A10926E0287E495E000
:1043A0009F938F930DEF1FE1FF92EF92FE0109950E
:1043B00084E180936E020F900F900F900F90809188
:1043C0007E0390917F03A0918003B0918103B7FF9A
:1043D00004C081509C4FAF4FBF4F2AE0B595A795C1
:1043E000979587952A95D1F7BF93AF939F938F9316
:1043F00084E595E09F938F931F930F93E0913E0484
:10440000F0913F04099588E280936E022DB73EB784
:10441000285F3F4F2DBF8091760390917703A09145
:104420007803B0917903B7FF04C081509C4FAF4F20
:10443000BF4FCAE0B595A79597958795CA95D1F7CF
:10444000BF93AF939F938F9383E695E09F938F9352
:104450001F930F93E0913E04F0913F0409958CE384
:1044600080936E028DB79EB708968DBF8091DE0156
:104470009091DF019F938F9382E795E09F938F93B5
:104480001F930F93E0913E04F0913F0409952DB7DF
:104490003EB72A5F3F4F11C710926E0280915D07B1
:1044A00090915E079F938F9380915B0790915C073B
:1044B0009F938F9381E895E09F938F93FF92EF9264
:1044C000FE01099584E180936E028DB79EB7089630
:1044D0008DBF80916107909162079F938F93809128
:1044E0005F07909160079F938F9381E995E09F9379
:1044F0008F93FF92EF92E0913E04F0913F04099573
:1045000088E280936E022DB73EB7285F3F4F2DBFE4
:1045100080916507909166079F938F9380916307C1
:10452000909164079F938F9381EA95E09F938F9377
:10453000FF92EF92E0913E04F0913F0409958CE3E5
:1045400080936E028DB79EB708968DBF80916907E4
:1045500090916A079F938F93809167079091680766
:104560009F938F9381EB95E0A2C010926E02809191
:104570003006E82FFF27EE0FFF1FE75AF84F808124
:1045800091819F938F9380912F06E82FFF27EE0F45
:10459000FF1FE75AF84F808191819F938F9381ECA1
:1045A00095E09F938F93FF92EF92FE01099584E12E
:1045B00080936E028DB79EB708968DBF80913206AC
:1045C000E82FFF27EE0FFF1FE75AF84F80819181F8
:1045D0009F938F9380913106E82FFF27EE0FFF1FE7
:1045E000E75AF84F8081918188589F4F9F938F930E
:1045F00081ED95E09F938F93FF92EF92E0913E04BF
:10460000F0913F04099588E280936E022DB73EB782
:10461000285F3F4F2DBF80913406E82FFF27EE0F14
:10462000FF1FE75AF84F8081918181589F4F9F93D8
:104630008F9380913306E82FFF27EE0FFF1FE75A75
:10464000F84F8081918181589F4F9F938F9381EE86
:1046500095E09F938F93FF92EF92E0913E04F0914B
:104660003F0409958CE380936E028DB79EB7089640
:104670008DBF80913606E82FFF27EE0FFF1FE75A08
:10468000F84F8081918181589F4F9F938F938091A4
:104690003506E82FFF27EE0FFF1FE75AF84F8081FE
:1046A000918181589F4F9F938F9381EF95E09F93C6
:1046B0008F93FF92EF92E0913E04F0913F040995B1
:1046C0002DB73EB7285F3F4FF8C510926E0281E0CC
:1046D00096E09F938F930DEF1FE1FF92EF92FE0103
:1046E0000995809102010F900F900F900F908A30E2
:1046F00009F09DC084E180936E02809193039091B4
:1047000094039C0197FF02C0295F3F4F287F821BC3
:10471000930B9F938F93809193039091940397FDB4
:104720000796A3E095958795AA95E1F79F938F93B8
:10473000209193033091940337FF02C0295F3F4FCC
:10474000F3E035952795FA95E1F780914E02909127
:104750004F02821B930B9F938F938FE096E09F9362
:104760008F931F930F93E0913E04F0913F040995BE
:1047700088E280936E028DB79EB70A968DBF8091B6
:104780009103909192039C0197FF02C0295F3F4FD4
:10479000287F821B930B9F938F938091910390911D
:1047A000920397FD0796E3E095958795EA95E1F7E3
:1047B0009F938F93209191033091920337FF02C012
:1047C000295F3F4F73E0359527957A95E1F7809102
:1047D0004C0290914D02821B930B9F938F9380E22A
:1047E00096E09F938F931F930F93E0913E04F09177
:1047F0003F0409958CE380936E022DB73EB7265F88
:104800003F4F2DBF80918F03909190039F938F9383
:1048100080918F039091900320914A0230914B0236
:10482000821B930B9F938F9381E396E0A7C38B30FA
:1048300019F0843108F4ADC084E180936E02809158
:104840009303909194039C0197FF02C0215F3F4F17
:10485000207F821B930B97FD0196959587959F93DB
:104860008F93809193039091940397FD0F9654E05A
:10487000959587955A95E1F79F938F932091930390
:104880003091940337FF02C0295F3F4F43E03595D5
:1048900027954A95E1F780914E0290914F02821B35
:1048A000930B9F938F938FE396E09F938F931F9328
:1048B0000F93E0913E04F0913F04099588E28093C4
:1048C0006E022DB73EB7265F3F4F2DBF80919103FB
:1048D000909192039C0197FF02C0215F3F4F207F80
:1048E000821B930B97FD0196959587959F938F93C8
:1048F000809191039091920397FD0F96C4E0959556
:104900008795CA95E1F79F938F93209191033091FA
:10491000920337FF02C0295F3F4FB3E035952795DB
:10492000BA95E1F780914C0290914D02821B930B56
:104930009F938F9381E596E09F938F931F930F939F
:10494000E0913E04F0913F0409958CE380936E0260
:104950008DB79EB70A968DBF80918F03909190037B
:1049600097FD0196959587959F938F9380918F03DF
:104970009091900320914A0230914B02821B930B3D
:104980009F938F9383E696E09F938F931F930F934C
:1049900092CE8D3009F0F6C584E180936E0280914D
:1049A000130199279F938F93809193039091940380
:1049B00097FD0F96F4E095958795FA95E1F79F930B
:1049C0008F93209193033091940337FF02C0295FA6
:1049D0003F4FE3E035952795EA95E1F780914E0248
:1049E00090914F02821B930B9F938F9382E796E0E7
:1049F0009F938F931F930F93E0913E04F0913F0498
:104A0000099588E280936E028DB79EB70A968DBF96
:104A10008091120199279F938F9380919103909198
:104A2000920397FD0F9674E0959587957A95E1F737
:104A30009F938F93209191033091920337FF02C08F
:104A4000295F3F4F63E0359527956A95E1F780919F
:104A50004C0290914D02821B930B9F938F9386E89B
:104A600096E09F938F931F930F93E0913E04F091F4
:104A70003F0409958CE380936E022DB73EB7265F05
:104A80003F4F2DBF8091110199279F938F93809164
:104A90008F039091900397FD0196959587959F932D
:104AA0008F9380918F039091900320914A023091CF
:104AB0004B02821B930B9F938F938AE996E09F93FF
:104AC0008F931F930F93E0913E04F0913F0409955B
:104AD0008DB79EB70A9656C310926E028EEA96E084
:104AE0009F938F93FF92EF92FE01099584E180934B
:104AF0006E020F900F900F900F908091890390910C
:104B00008A039F938F9380914602909147029F93CF
:104B10008F938BEB96E09F938F93FF92EF92E091B0
:104B20003E04F0913F04099588E280936E022DB710
:104B30003EB7285F3F4F2DBF809187039091880338
:104B40009F938F9380914802909149029F938F93F6
:104B50008AEC96E09F938F93FF92EF92E0913E0450
:104B6000F0913F0409958CE380936E028DB79EB758
:104B700008968DBF80918303909184039F938F93B8
:104B800080914402909145029F938F9389ED96E026
:104B90008ECD10926E0280911E0190911F016AE0ED
:104BA00070E00E94E6799F938F9380911E0190910F
:104BB0001F016AE070E00E94E6797F936F9388EEB0
:104BC00096E09F938F93FF92EF92FE01099584E107
:104BD00080936E028DB79EB708968DBF8091A40812
:104BE0009091A5086AE070E00E94D2799F938F931C
:104BF0008091A4089091A5086AE070E00E94D279A3
:104C00007F936F938CEF96E09F938F93FF92EF9239
:104C1000E0913E04F0913F04099588E280936E0292
:104C20002DB73EB7285F3F4F2DBF8091A6089091CA
:104C3000A7089F938F9380E197E09F938F93FF92B4
:104C4000EF92E0913E04F0913F0409958CE380934C
:104C50006E028DB79EB706968DBF8091A808909181
:104C6000A9089F938F9380E297E02EC110926E0265
:104C700082E397E09F938F93FF92EF92FE01099555
:104C800084E180936E020F900F900F900F908091AF
:104C9000590790915A079F938F938BE397E09F93C7
:104CA0008F93FF92EF92E0913E04F0913F040995BB
:104CB00088E280936E028DB79EB706968DBF809175
:104CC0002C0399279F938F938BE497E09F938F9367
:104CD000FF92EF92E0913E04F0913F0409958CE33E
:104CE00080936E022DB73EB72A5F3F4F2DBF809154
:104CF0005807992701979F938F938BE597E002CBF5
:104D000010926E028BE697E09F938F93FF92EF9243
:104D1000FE01099584E180936E020F900F900F9031
:104D20000F9080913A0390913B039F938F9383E779
:104D300097E09F938F93FF92EF92E0913E04F09162
:104D40003F04099588E280936E022DB73EB72A5F33
:104D50003F4F2DBF8091DE019091DF019F938F9394
:104D600081E897E09F938F93FF92EF92E0913E044A
:104D7000F0913F0409958CE380936E028DB79EB746
:104D800006968DBF80913C0390913D039F938F9336
:104D90008FE897E099C010926E0280912D039927B9
:104DA0009F938F938DE997E09F938F93FF92EF925C
:104DB000FE01099584E180936E028DB79EB7069639
:104DC0008DBF80912E0399279F938F9389EA97E057
:104DD0009F938F93FF92EF92E0913E04F0913F04F6
:104DE000099588E280936E022DB73EB72A5F3F4F48
:104DF0002DBF80912F0399279F938F9385EB97E089
:104E00009F938F93FF92EF92E0913E04F0913F04C5
:104E100009958CE380936E028DB79EB706968DBF81
:104E20008091300399279F938F9381EC97E04CC03A
:104E300010926E028091310399279F938F938DEC8E
:104E400097E09F938F93FF92EF92FE01099584E183
:104E500080936E028DB79EB706968DBF8091320308
:104E600099279F938F9389ED97E09F938F93FF925C
:104E7000EF92E0913E04F0913F04099588E280931F
:104E80006E022DB73EB72A5F3F4F2DBF809133038F
:104E900099279F938F9385EE97E09F938F93FF922F
:104EA000EF92E0913E04F0913F0409958CE38093EA
:104EB0006E028DB79EB706968DBF809134039927F9
:104EC0009F938F9381EF97E09F938F93FF92EF9241
:104ED000D9CA10926E028DEF97E09F938F930DEFDA
:104EE0001FE1FF92EF92FE01099584E180936E022B
:104EF0000F900F900F900F908091C10199279F9371
:104F00008F9385E098E09F938F93FF92EF92E091CB
:104F10003E04F0913F04099588E280936E028DB7BC
:104F20009EB706968DBF809125029091260297FD2F
:104F3000039695958795959587959F938F9383E194
:104F400098E09F938F931F930F93E0913E04F0910D
:104F50003F0409958CE380936E022DB73EB72A5F1C
:104F60003F4F2DBF80915E0699279F938F9380912D
:104F70005D0699279F938F9381E298E09F938F938B
:104F80001F930F93E0913E04F0913F0409958DB774
:104F90009EB70896F7C010926E028FE298E09F933A
:104FA0008F93FF92EF92FE01099584E180936E0248
:104FB0000F900F900F900F9080917804992787FDA4
:104FC00090959F938F9380917704992787FD909573
:104FD0009F938F938FE398E09F938F93FF92EF922D
:104FE000E0913E04F0913F04099588E280936E02BF
:104FF0002DB73EB7285F3F4F2DBF80917904992789
:1050000087FD90959F938F9380917A0499279F9322
:105010008F938FE498E09F938F93FF92EF92E091AC
:105020003E04F0913F0409958CE380936E028DB7A6
:105030009EB708968DBF80917E0499279F938F938A
:1050400080917B04992787FD90959F938F938FE59F
:1050500098E02DCB10926E028FE698E09F938F938D
:10506000FF92EF92FE01099584E180936E020F900A
:105070000F900F900F908091130799278F77907062
:105080009F938F9380910B0799278F7790709F93B1
:105090008F938091030799278F7790709F938F93B9
:1050A0008091FB0699278F7790709F938F938FE75E
:1050B00098E09F938F93FF92EF92E0913E04F091DE
:1050C0003F04099588E280936E028DB79EB70C96D7
:1050D0008DBF8091330799278F7790709F938F931F
:1050E00080912B0799278F7790709F938F93809152
:1050F000230799278F7790709F938F9380911B0739
:1051000099278F7790709F938F9380E998E09F9372
:105110008F93FF92EF92E0913E04F0913F04099546
:105120008CE380936E022DB73EB7245F3F4F2DBFB7
:105130008091530799278F7790709F938F938091D9
:105140004B0799278F7790709F938F938091430798
:1051500099278F7790709F938F9380913B07992722
:105160008F7790709F938F9381EA98E09F938F93AE
:10517000FF92EF92E0913E04F0913F0409958DB7C4
:105180009EB70C968DBFFEC110926E0282EB98E026
:105190009F938F93FF92EF92FE01099584E1809394
:1051A0006E020F900F900F900F9080911707992724
:1051B00087FD90959F938F9380910F07992787FD87
:1051C00090959F938F9380910707992787FD9095DE
:1051D0009F938F938091FF06992787FD90959F93CA
:1051E0008F9381EC98E09F938F93FF92EF92E091E1
:1051F0003E04F0913F04099588E280936E022DB73A
:105200003EB7245F3F4F2DBF80913707992787FD19
:1052100090959F938F9380912F07992787FD909565
:105220009F938F9380912707992787FD90959F9350
:105230008F9380911F07992787FD90959F938F9358
:1052400082ED98E09F938F93FF92EF92E0913E045E
:10525000F0913F0409958CE380936E028DB79EB761
:105260000C968DBF80915707992787FD90959F9346
:105270008F9380914F07992787FD90959F938F93E8
:1052800080914707992787FD90959F938F938091F1
:105290003F07992787FD90959F938F9383EE98E022
:1052A0009F938F93FF92EF92E0913E04F0913F0421
:1052B00009952DB73EB7245F3F4F2DBF63C11092B4
:1052C0006E0284EF98E09F938F930DEF1FE1FF92A2
:1052D000EF92FE01099584E180936E020F900F908A
:1052E0000F900F9080911307881F8827881F97E0E1
:1052F000899FC00111248D969F938F9380910B07F6
:10530000881F8827881F96E0899FC00111248D96E9
:105310009F938F9380910307881F8827881F95E0AC
:10532000899FC00111248D969F938F938091FB06D6
:10533000881F8827881F9927880F991F880F991F12
:105340008D969F938F9383E099E09F938F93FF9225
:10535000EF92E0913E04F0913F04099588E280933A
:105360006E028DB79EB70C968DBF80913307881F54
:105370008827881F9BE0899FC00111248D969F93E9
:105380008F9380912B07881F8827881F9AE0899F19
:10539000C00111248D969F938F9380912307881FBE
:1053A0008827881F99E0899FC00111248D969F93BB
:1053B0008F9380911B07881F8827881F992723E0D8
:1053C000880F991F2A95E1F78D969F938F9387E118
:1053D00099E09F938F93FF92EF92E0913E04F091BA
:1053E0003F0409958CE380936E022DB73EB7245F8E
:1053F0003F4F2DBF80913B07881F8827881F9CE067
:10540000899FC00111248D969F938F938BE299E021
:105410009F938F93FF92EF92E0913E04F0913F04AF
:105420000995809143072DB73EB72A5F3F4F2DBFA7
:1054300087FF12C080E480936E028CE399E09F9313
:105440008F93FF92EF92E0913E04F0913F04099513
:105450000F900F900F900F9080914B0787FF12C015
:1054600084E480936E028FE399E09F938F931F9360
:105470000F93E0913E04F0913F0409950F900F9037
:105480000F900F908091530787FF7CC088E4809332
:105490006E0282E499E09F938F931F930F93E091A4
:1054A0003E04F0913F0409950F900F900F900F90DC
:1054B00069C010926E0285E499E09F938F93FF92EA
:1054C000EF92FE01099584E180936E020F900F9098
:1054D0000F900F908091FC019091FD019F938F930D
:1054E00083E599E09F938F93FF92EF92E0913E04C2
:1054F000F0913F04099588E280936E028DB79EB7C4
:1055000006968DBF8091FE019091FF019F938F932E
:1055100080E699E09F938F93FF92EF92E0913E0493
:10552000F0913F04099589E480936E022DB73EB750
:105530002A5F3F4F2DBF8DE699E09F938F93FF9297
:10554000EF92E0913E04F0913F04099580916C0246
:105550000F900F900F900F9083FF14C01092FF01D7
:105560001092FE0160E070E08EE090E00E94CE2C90
:1055700009C080912001281719F42150209320019F
:1055800010926D0210926C02E6E0CDB7DEB70C947B
:105590005E7AF999FECF92BD81BDF89A80B59927C0
:1055A0000895F999FECF1FBA92BD81BD60BD0FB6B7
:1055B000F894FA9AF99A0FBE08954AEA20E030E08A
:1055C0002617370740F4FC018191480F2F5F3F4FAA
:1055D00026173707C8F3842F99270895EAEA40E091
:1055E00050E04617570778F49C01F999FECF32BD79
:1055F00021BDF89A80B5E80F4F5F5F4F2F5F3F4F97
:105600004617570790F38E2F9927089581E08093CE
:10561000310682E08093300683E080932F0684E099
:105620008093320685E08093330686E080933406CB
:1056300087E08093350688E08093360689E0809382
:1056400037068AE0809338068BE0809339068CE039
:1056500080933A06089595E590932E068091020175
:10566000843170F08AE080934E06109272068BE1CE
:1056700080934A068EE480936F06809370060DC077
:1056800083E080934E0680E2809372068EE18093E1
:105690004A0690936F06909370068AE680933B06C5
:1056A00062E06093940674E0709355061092910640
:1056B00010928E0648E04093480656EE50934906F5
:1056C00090E490934B063EE130933C068FEF80933D
:1056D0003E068FE080933F0630933D0610924106D0
:1056E00040934206909343061092440680934006EE
:1056F00010925706109258061092590610925A06A8
:105700001092740610927506109276061092770623
:1057100090E890935B0622E320935C0660939306E7
:1057200080935D0650935E06709363068DE78093C9
:105730006606809367068093680690935F0685E50A
:105740008093600686E4809361068CED8093620608
:105750008CE380936406109265068FE5809378064B
:1057600083EF80937A068AEA80937C0680937D0695
:1057700084E18093790680937B06209369069AE5FD
:1057800090936A0620936B06109292068EEF809398
:105790007E0624E620937F069093800690938106F0
:1057A000909382068BE48093830680938406809393
:1057B00085061092860686E08093870640938806C9
:1057C0009093890630938A0685EF80938B06209309
:1057D0008C0660938D0610928F061092900681E2DF
:1057E000809352068DE28093530690935406089559
:1057F000CF93DF930E942B2B8EE08093450620E110
:10580000209346063CE03093470690E590934C0683
:1058100086E980934D0690934F068093500686E06C
:105820008093510680E2809356068AE580936C0649
:1058300090936D0681E080936E062093710684E656
:1058400080937306A5E9B6E0E1E7F1E0ED01019090
:1058500009923A95E1F763E770E0CD0187569040F1
:105860000E94DD2A8093A106DF91CF910895CF9306
:10587000DF930E942B2B8AE08093450680E1809382
:10588000460626E0209347069AE590934C0688E763
:1058900080934D0690934F068093500620935106B7
:1058A00020E22093560690936C0680E580936D0667
:1058B0008CE380936E06209371068BE480937306CD
:1058C000A5E9B6E08CE0E8E7F1E0ED01019009928E
:1058D0008A95E1F763E770E0CD01875690400E941A
:1058E000DD2A8093A106DF91CF910895CF93DF93B6
:1058F0000E942B2B88E08093450630E130934606CA
:1059000026E02093470694E690934C0688E7809320
:105910004D0690934F068093500620935106309386
:1059200056068AE580936C0680E580936D0696E4C2
:1059300090936E0680E28093710690937306A5E9BA
:10594000B6E08CE0E0E8F1E0ED01019009928A9583
:10595000E1F763E770E0CD01875690400E94DD2AB1
:105960008093A106DF91CF910895F999FECF92BD62
:1059700081BDF89A80B599270895F999FECF1FBA8D
:1059800092BD81BD60BD0FB6F894FA9AF99A0FBE28
:10599000089569EC7AE20E943578089541ED5AE263
:1059A0000E946F780895EF92FF920F931F93CF9309
:1059B000C82F8150853008F0C3E084E7C89F80017C
:1059C000112480EFE82E8FEFF82EE00EF11E63E732
:1059D00070E0C7010E94EE2A682F98012D593F4FB1
:1059E0008FB39927AC014270507081FDF9CF32BD61
:1059F00021BDF89A80B5861711F0CA0121C08FB376
:105A000099279C012270307081FDF9CFF2BCE1BC76
:105A1000F89A80B5853511F0C90112C084E7C89F96
:105A2000C0011124409729EC3AE244E750E0BC0160
:105A30008EE296E00E9410780E94E66881E090E095
:105A4000CF911F910F91FF90EF900895282F8630EE
:105A500010F025E003C0882309F421E0F999FECF76
:105A60001FBA82E090E092BD81BD20BD0FB6F894D0
:105A7000FA9AF99A0FBE0895CF93C82F80912E06F7
:105A8000853509F042C0C63010F0C5E003C0CC2314
:105A900009F43BC063E770E08EE296E00E94DD2AE5
:105AA0008093A10684E7C89FC001112421ED3AE24A
:105AB00044E750E06EE276E040970E944D7821ED99
:105AC0003AE24CE050E06FE276E080E590E00E9440
:105AD0004D786CE070E08FE296E00E94DD2A282F7E
